:020000040801F1
:10000000603600202DBD06080DBA06080FBA060896
:1000100011BA060813BA060815BA0608000000004F
:1000200000000000000000000000000017BA0608F1
:1000300019BA0608000000001BBA06081DBA060817
:10004000B1BD0608B1BD0608B1BD0608B1BD0608C0
:10005000B1BD0608B1BD0608B1BD0608B1BD0608B0
:10006000B1BD0608B1BD0608B1BD0608B1BD0608A0
:10007000B1BD0608B1BD060825BA06082FBA0608A4
:10008000B1BD0608B1BD0608B1BD0608B1BD060880
:10009000B1BD0608B1BD0608B1BD0608B1BD060870
:1000A000B1BD0608B1BD0608B1BD0608B1BD060860
:1000B000B1BD0608B1BD0608B1BD0608B1BD060850
:1000C000B1BD0608B1BD0608B1BD0608B1BD060840
:1000D000B1BD0608B1BD0608B1BD0608B1BD060830
:1000E000B1BD0608B1BD0608B1BD0608B1BD060820
:1000F000B1BD0608B1BD0608B1BD0608B1BD060810
:10010000B1BD0608B1BD0608B1BD0608B1BD0608FF
:10011000B1BD0608B1BD0608B1BD0608B1BD0608EF
:10012000B1BD0608B1BD0608B1BD0608B1BD0608DF
:10013000B1BD0608B1BD0608B1BD0608B1BD0608CF
:10014000B1BD0608B1BD0608B1BD060839BA06083A
:10015000B1BD0608B1BD060843BA0608B1BD060820
:10016000B1BD0608B1BD0608B1BD0608B1BD06089F
:10017000B1BD0608B1BD0608B1BD0608000000000B
:10018000B1BD0608B1BD0608424D48B004000000EC
:1001900000004600000038000000E00100004001BF
:1001A0000000010010000300000002B00400120B68
:1001B0000000120B0000000000000000000000F82A
:1001C0000000E00700001F00000000000000B20374
:1001D0000F038C026B026C026C028C028D02AD026A
:1001E000AD02AD02AD02AD02AD02AD02AD02AD0297
:1001F000AD02AD02AD02AD02AD02AD02AD02AD0287
:10020000AD02AD02AD02AD02AD02AD02AD02AD0276
:10021000AD02AD02AD02AD02AD02AD02AD02AD0266
:10058000AD028D028C026C024B020A020A021314A5
:1005900092030F03EE02EF022F0350039103910326
:1005A00091039103910391039103910391039103AB
:1005B000910391039103910391039103910391039B
:1005C000910391039103910391039103910391038B
:1005D000910391039103910391039103910391037B
:100940009203910371033003CE024B020A02542436
:10095000F313B20371039103500B9113B11BB11B3D
:10096000B11BB11BB11BB11BB11BB11BB11BB11B27
:10097000B11BB11BB11BB11BB11BB11BB11BB11B17
:10098000B11BB11BB11BB11BB11BB11BB11BB11B07
:10099000B11BB11BB11BB11BB11BB11BB11BB11BF7
:100D0000D123D123342413149103CD022A02742C4D
:100D1000131CB2039103EE024609E408E408E40858
:100D2000E408E408E408E408E408E408E408E40863
:100D3000E408E408E408E408E408E408E408E40853
:100D4000E408E408E408E4080409040904090409BF
:100D5000040904090409040904090409040904092B
:100D6000040904090409040904090409040904091B
:100D7000040904090409040924092409240924098B
:100D800024092409240924092409240924092409FB
:100D900024092409240924092409240924092409EB
:100DA00024092409250925092509250925092509D5
:100DB00025092509250925092509250925092509C3
:100DC0002509250925094509450945094509450913
:100DD00045094509450945094509450945094509A3
:100DE0004509450945114511451145114511451163
:100DF000451145114511451145114509450945095B
:100E00004509450945094509450945094509450972
:100E10004509450945094509450945094509450962
:100E200045094509450945094509250925092509B2
:100E300025094509450945094509240924092409C5
:100E400024092409240924092409240945094509F8
:100E50004509450945094509450945092409240964
:100E6000240924092409240924092409240924091A
:100E7000240924092409240924092409240924090A
:100E800024092409240924092409240924092409FA
:100E900024090409040904090409040904090409CA
:100EA000240924090409040904090409040904099A
:100EB00004090409040904090409040904090409CA
:100EC00004090409040904090409040904090409BA
:100ED0000409040904090409040904090409E408CB
:100EE000E40804090409040904090409E408E408FD
:100EF000E408E408E408E408E408E408E408E40892
:100F0000E408E408E408E408E408E408E408E40881
:100F1000E308E308E308E308E408E408E308E30877
:100F2000C308C308C308C308C308C308C308C30869
:100F3000C308C308C308C308C308C308C308C30859
:100F4000C308C308A308C308C308C308C308C30869
:100F5000A308A308A308A308A308A308A308A30839
:100F6000A308A308A308A308A308A308A308A30829
:100F7000A308A308A308A308A308A308A308A30819
:100F8000A308A308A308A308A308A308A308A30809
:100F9000A308A308A308A308A308A308A308A308F9
:100FA000A308A308A308A308A308A308A308A308E9
:100FB000A308A308A308A308A308A308A308A308D9
:100FC000A308A308A308A308A308A308A308A308C9
:100FD000A308A308A308A308A308A308A308A308B9
:100FE000A308A308A308A308A308A308A308A308A9
:100FF000A308A308A3088308830883088308830839
:101000008308830883088308830883088308830888
:101010008308830883088308830883088308830878
:101020008308830883088308830883088308830868
:101030008308830883088308830883088308830858
:101040008308830883088308830883088308830848
:101050008308830883088308830883088308830838
:101060008308830883088308830883088308830828
:101070008308830883088308830883088308830818
:101080008308830883088308830883088308830808
:1010900083088308830883088308830883088308F8
:1010A00083088308830883088308830883088308E8
:1010B00083088308830883088308830883088308D8
:1010C00083082511902B953413142F034B02742C95
:1010D000F31391038C02250161006100610061003E
:1010E00061006100610061006100610061006100F8
:1010F00061006100610061006200620062006200E4
:10110000620062006200820082008200820082002F
:1011100082008200820082008200820882088208A7
:10112000820882088208820882088208A208A2082F
:10113000A208A208A208A208A208A208A208A2085F
:10114000A208A208A208A208A208A208A208A2084F
:10115000A208A208A208A208A208A208C208C208FF
:10116000C208C208C208C208C208C208C208C2082F
:10117000C208C208C208C208C208C208C208C2081F
:10118000C208C208C208C208C208C208C208C2080F
:10119000C208C208C208C208C308C308C308C308FB
:1011A000C308C308C308C308C308C308C308C308E7
:1011B000C308C308C308C308C308C308C308C308D7
:1011C000C308C308C308C308C308C308C308C308C7
:1011D000C208C208C208C208C208C208C208C208BF
:1011E000C208C208C208C208C208C208C208C208AF
:1011F000C208C208C208C208C208C208C208C2089F
:10120000C208C208C208C208C208C208C208C2088E
:10121000C208C208C208C208C208C208C208C2087E
:10122000C208C208C208C208C208C208C208C2086E
:10123000C208C208A208A208A208A208A208A2081E
:10124000A208A208A208A208A208A208A208A2084E
:10125000A208A208A208A208A208A208A208A2083E
:10126000A208A208A208A208A208A208A208A2082E
:10127000A208A208A20882088208820882088208BE
:101280008108810881088108810881088108810816
:101290008108810881088108810881088108810806
:1012A00081088108810881088108810881088108F6
:1012B00081088108610861086108610861086108A6
:1012C00061086108610861086108610861086100DE
:1012D00061006100610061006100610061006108FE
:1012E000610861086108610861084100410041002E
:1012F00041004100410041004100410041004100E6
:101300004100410041002100200020002000200079
:1013100020002000200020002000200020002000CD
:1013200020002000200020002100210021002100B9
:1013300021002100210021002100200020002000A8
:10134000200020002000200020002000200021009C
:101350002100210021002100210021002100210085
:10136000200020002000200020002000200020007D
:10137000200020002000200020002000200020006D
:10138000200020002000200020002000200020005D
:1013900020002000200000000000000000000000ED
:1013A000000000000000000000000000000000003D
:1013B000000000000000000000000000000000002D
:1013C000000000000000000000000000000000001D
:1013D000000000000000000000000000000000000D
:1013E00000000000000000000000000000000000FD
:1013F00000000000000000000000000000000000ED
:1014000000000000000000000000000000000000DC
:1014100000000000000000000000000000000000CC
:1014200000000000000000000000000000000000BC
:1014300000000000000000000000000000000000AC
:10144000000000000000000000000000000000009C
:10145000000000000000000000000000000000008C
:10146000000000000000000000000000000000007C
:10147000000000000000000000000000000000006C
:101480000000000025119033342450036C02542CCA
:10149000D20BCE02040161006100610061006100B5
:1014A0006100610061006100610061006100610034
:1014B000610061006100620062006200620062001F
:1014C000620062008200820082008200820082004C
:1014D00082008200820082008208820882088208DC
:1014E0008208820882088208A208A208A208A2082C
:1014F000A208A208A208A208A208A208A208A2089C
:10150000A208A208A208A208A208A208A208A2088B
:10151000A208C208C208C208C208C208C208C2089B
:10152000C208C208C208C208C208C208C208C2086B
:10153000C208C208C208C208C208C208C208C2085B
:10154000C208C208C208C208C208C208C208C3084A
:10155000C308C308C308C308C308C308C308C30833
:10156000C308C308C308C308C308C308C308C30823
:10157000C308C308C308C308C308C308C308C30813
:10158000C308C308C308C308C308C308C308C30803
:10159000C308C308C308C308C208C208C208C208F7
:1015A000C208C208C208C208C208C208C208C208EB
:1015B000C208C208C208C208C208C208C208C208DB
:1015C000C208C208C208C208C208C208C208C208CB
:1015D000C208C208C208C208C208C208C208C208BB
:1015E000C208C208C208C208C208C208C208C208AB
:1015F000C208C208C208A208A208A208A208A2083B
:10160000A208A208A208A208A208A208A208A2088A
:10161000A208A208A208A208A208A208A208A2087A
:10162000A208A208A208A208A208A208A208A2086A
:10163000A208A208A208A2088208820882088208DA
:10164000820882088208820882088108810881084D
:101650008108810881088108810881088108810842
:101660008108810881088108810881088108810832
:101670008108810881088108810881086108610862
:101680006108610861086108610861086108610812
:101690006108610861086108610861086108610802
:1016A0006108610861086108610861086100610002
:1016B0004100410041004100410041004100410022
:1016C0004100410041004100410041004100410012
:1016D00041004100210021002100210020002000C4
:1016E00021002100210021002100210021002100F2
:1016F00021002100210021002100210021002100E2
:1017000021002000200021002100210021002100D3
:1017100021002100210021002100210021002100C1
:1017200021002100210021002000210021002100B2
:1017300021002100210021002100210021002100A1
:101740002100210020002000200020002000200097
:1017500020002000200020002000200020000000A9
:101760000000000000000000000000000000000079
:101770000000000000000000000000000000000069
:101780000000000000000000000000000000000059
:101790000000000000000000000000000000000049
:1017A0000000000000000000000000000000000039
:1017B0000000000000000000000000000000000029
:1017C0000000000000000000000000000000000019
:1017D0000000000000000000000000000000000009
:1017E00000000000000000000000000000000000F9
:1017F00000000000000000000000000000000000E9
:1018000000000000000000000000000000000000D8
:1018100000000000000000000000000000000000C8
:1018200000000000000000000000000000000000B8
:1018300000000000000000000000000000000000A8
:101840000000000000002511D22391036C025424F3
:10185000B2038C02A30061006100610061006100BD
:101860006100610061006100610061006100610070
:101870006100620062006200620062006200620059
:101880008200820082008200820082008200820048
:101890008200820082008208820882088208820810
:1018A000A208A208A208A208A208A208A208A208E8
:1018B000A208A208A208A208A208A208A208A208D8
:1018C000A208A208A208A208A208C208C208C20868
:1018D000C208C208C208C208C208C208C208C208B8
:1018E000C208C208C208C208C208C208C208C208A8
:1018F000C208C208C208C208C208C208C208C20898
:10190000C208C208C208C308C308C308C308C30882
:10191000C308C308C308C308C308C308C308C3086F
:10192000E308E308E308E308E308E308E308E3085F
:10193000E308E308E308E308E308E308E308E3084F
:10194000E308E308E308E308C308C308C308C308BF
:10195000C308C308C308C308C308C308C308C3082F
:10196000C208C208C208C208C208C208C208C20827
:10197000C208C208C208C208C208C208C208C20817
:10198000C208C208C208C208C208C208C208C20807
:10199000C208C208C208C208C208C208C208C208F7
:1019A000C208C208C208C208C208C208C208C208E7
:1019B000C208C208C208C208C208C208C208C208D7
:1019C000C208C208C208C208A208A208A208A20847
:1019D000A208A208A208A208A208A208A208A208B7
:1019E000A208A208A208A208A208A208A208A208A7
:1019F000A208A208A208A208A208A20882088208D7
:101A00008208820882088208A208A2088208820846
:101A1000820881088108810881088108810881087D
:101A2000810881088108810881088108810881086E
:101A3000810881088108810881088108810881085E
:101A4000810881088108810881086108810881086E
:101A500081088108610861086108610861086108FE
:101A60006108610861086108610861086108610036
:101A700061006100610061006100410041004100BE
:101A8000410041004100410041004100410041004E
:101A900041004100410041002100210021002100BE
:101AA000210021002100210021002100210021002E
:101AB000210021002100210021002100210021001E
:101AC000210021002100210021002100210021000E
:101AD00021002100210021002100210021002100FE
:101AE00021002100210021002100210021002100EE
:101AF00021002100210021002100210021002100DE
:101B000021002100210021002100210020002000CF
:101B100020002000200020002000200020002000C5
:101B20002000200020002000000000000000000035
:101B300000000000000000000000000000000000A5
:101B40000000000000000000000000000000000095
:101B50000000000000000000000000000000000085
:101B60000000000000000000000000000000000075
:101B70000000000000000000000000000000000065
:101B80000000000000000000000000000000000055
:101B90000000000000000000000000000000000045
:101BA0000000000000000000000000000000000035
:101BB0000000000000000000000000000000000025
:101BC0000000000000000000000000000000000015
:101BD0000000000000000000000000000000000005
:101BE00000000000000000000000000000000000F5
:101BF00000000000000000000000000000000000E5
:101C0000000000000000A308D22391038C0254249A
:101C100091034B02A300610061006100610061005B
:101C200061006100610061006100610061006100AC
:101C30006200620062006200620062006200820074
:101C40008200820082008200820082008200820084
:101C5000820082088208820882088208A208A208FC
:101C6000A208A208A208A208A208A208A208A20824
:101C7000A208A208A208A208A208A208A208A20814
:101C8000A208A208A208C208C208C208C208C20864
:101C9000C208C208C208C208C208C208C208C208F4
:101CA000C208C208C208C208C208C208C208C208E4
:101CB000C208C208C208C208C208C208C208C308D3
:101CC000C308C308C308C308C308C308C308C308BC
:101CD000C308C308C308C308E308E308E308E3082C
:101CE000E308E308E308E308E308E308E308E3089C
:101CF000E308E308E308E308E308E308E308E3088C
:101D0000E308E308E308E308E308E308E308E3087B
:101D1000E308E308E308E308C308C308C308C308EB
:101D2000C308C308C308C308C308C208C208C2085E
:101D3000C208C208C208C208C208C208C208C20853
:101D4000C208C208C208C208C208C208C208C20843
:101D5000C208C208C208C208C208C208C208C20833
:101D6000C208C208C208C208C208C208C208C20823
:101D7000C208C208C208C208C208C208C208C20813
:101D8000C208C208C208C208C208A208A208A20863
:101D9000A208A208A208A208A208A208A208A208F3
:101DA000A208A208A208A208A208A208A208A208E3
:101DB000A208A208A208A208A208A208A208A208D3
:101DC000A208A208A208A208A208A208A2088208E3
:101DD00082088208820882088208810881088108B6
:101DE00081088108810881088108810881088108AB
:101DF000810881088108810881088108810881089B
:101E0000810881088108810881088108810881088A
:101E1000810881088108610861086108610861081A
:101E2000810861086108610861086108610861084A
:101E300061006100610061006100610041004100DA
:101E4000410041004100410041004100410041008A
:101E5000410041004100410041004100410041007A
:101E6000410041002100210021002100210021002A
:101E7000210021002100210021002100210021005A
:101E8000210021002100210021002100210021004A
:101E9000210021002100210021002100210021003A
:101EA000210021002100210021002100210021002A
:101EB000210021002100210021002100210021001A
:101EC000210021002100210021002100210021000A
:101ED0002100210020002000200020002000200000
:101EE00020002000200020002000200020002000F2
:101EF00000000000000000000000000000000000E2
:101F000000000000000000000000000000000000D1
:101F100000000000000000000000000000000000C1
:101F200000000000000000000000000000000000B1
:101F300000000000000000000000000000000000A1
:101F40000000000000000000000000000000000091
:101F50000000000000000000000000000000000081
:101F60000000000000000000000000000000000071
:101F70000000000000000000000000000000000061
:101F80000000000000000000000000000000000051
:101F90000000000000000000000000000000000041
:101FA0000000000000000000000000000000000031
:101FB0000000000000000000000000000000000021
:101FC0000000000000008308D12391038C02342418
:101FD00091034B02A3006100610061006100610098
:101FE00061006100610061006100610062006200E7
:101FF0006200620062006200620082008200820071
:1020000082008200820082008200820082008200C0
:1020100082088208820882088208A208A208A20810
:10202000A208A208A208A208A208A208A208A20860
:10203000A208A208A208A208A208A208A208A20850
:10204000A208A208C208C208C208C208C208C20880
:10205000C208C208C208C208C208C208C208C20830
:10206000C208C208C208C208C208C208C208C20820
:10207000C208C208C208C308C308C308C308C3080B
:10208000C308C308C308C308C308C308C308C308F8
:10209000E308E308E308E308E308E308E308E308E8
:1020A000E308E308E308E308E308E308E308E308D8
:1020B000E308E308E308E308E308E308E308E308C8
:1020C000E308E308E308E308E308E308E308E308B8
:1020D000E308E308E308E308E308E308E308E308A8
:1020E000C308C308C308C308C308C308C308C30898
:1020F000C308C208C208C208C208C208C208C2088F
:10210000C208C208C208C208C208C208C208C2087F
:10211000C208C208C208C208C208C208C208C2086F
:10212000C208C208C208C208C208C208C208C2085F
:10213000C208C208C208C208C208C208C208C2084F
:10214000C208C208C208C208C208C208C208A2085F
:10215000A208A208A208A208A208A208A208A2082F
:10216000A208A208A208A208A208A208A208A2081F
:10217000A208A208A208A208A208A208A208A2080F
:10218000A208A208A208A208A208A208A20882081F
:1021900082088208A208A208A2088208820882088F
:1021A000A2088208810881088108810881088208C4
:1021B00082088208810881088108810882088108D4
:1021C00081088108810881088108820881088108C6
:1021D00081088108810882088108810881088108B6
:1021E0008108610861086108610861086108610887
:1021F00061086100610061006100610061004100EF
:1022000041004100410041004100410041004100C6
:1022100041004100410041004100410041004100B6
:102220004100410041004100210021002100210026
:102230002100210021002100210021002100210096
:102240002100210021002100210021002100210086
:102250002100210021002100210021002100210076
:102260002100210021002100210021002100210066
:102270002100210021002100210021002100210056
:102280002100210021002100210021002100210046
:102290002100210021002100210021002000200038
:1022A000200020002000200020002000200020002E
:1022B000200020002000200000000000000000009E
:1022C000000000000000000000000000000000000E
:1022D00000000000000000000000000000000000FE
:1022E00000000000000000000000000000000000EE
:1022F00000000000000000000000000000000000DE
:1023000000000000000000000000000000000000CD
:1023100000000000000000000000000000000000BD
:1023200000000000000000000000000000000000AD
:10233000000000000000000000000000000000009D
:10234000000000000000000000000000000000008D
:10235000000000000000000000000000000000007D
:10236000000000000000000000000000000000006D
:10237000000000000000000000000000000000005D
:102380000000000000008308B12391038C02342474
:1023900091034B02A30061006100610061006100D4
:1023A0006100610061006100610062006200620022
:1023B000620062006200620082008200820082008D
:1023C00082008200820082008200820082088208ED
:1023D0008208820882088208A208A208A208A2082D
:1023E000A208A208A208A208A208A208A208A2089D
:1023F000A208A208A208A208A208A208A208A2088D
:10240000C208C208C208C208C208C208C208C2087C
:10241000C208C208C208C208C208C208C208C2086C
:10242000C208C208C208C208C208C208C208C3085B
:10243000C308C308C308C308C308C308C308C30844
:10244000C308C308C308E308E308E308E308E30894
:10245000E308E308E308E308E308E308E308E30824
:10246000E308E308E308E308E308E308E308E30814
:10247000E308E308E308E308E308E308E308E30804
:10248000E308E308E308E308E308E308E308E308F4
:10249000E308E308E308E308E308E308E308E308E4
:1024A000E308E308E308E308C308C308C308C30854
:1024B000C308E308E308E308E308C208C208C20847
:1024C000C208C208C208C208C208C208C208C208BC
:1024D000C208C208C208C208C208C208C208C208AC
:1024E000C208C208C208C208C208C208C208C2089C
:1024F000C208C208C208C208C208C208C208C2088C
:10250000C208C208C208C208C208C208C208C2087B
:10251000C208A208A208A208A208A208A208A2084B
:10252000A208A208A208A208A208A208A208A2085B
:10253000C208C208A208A208A208A208A208A2080B
:10254000A208A208A208A208A208A208A208A2083B
:10255000A208A208A208A208A208A208A208A2082B
:10256000A208A208A208A208A2088208820882087B
:10257000820882088208820882088208820882080B
:1025800082088208820882088208820882088208FB
:1025900082088208820882088208810882088208EC
:1025A0008208820881088108810861086108610841
:1025B00081086108610861086108610061006100CB
:1025C00041004100410041004100610841004100DB
:1025D00041004100410041004100410041004100F3
:1025E00041004100410041004100410041004100E3
:1025F0004100410041004100410021002100210033
:102600002100210021002100210021004100410082
:1026100041004100410041004100410041004100B2
:1026200021002100210021002100210021002100A2
:1026300021004100410041004100410021002100F2
:102640002100210021002100210021002100210082
:102650002100210021002100210021002100210072
:102660002100210021002000200020002000200067
:10267000200020002000200020002000200020005A
:10268000000000000000000000000000000000004A
:10269000000000000000000000000000000000003A
:1026A000000000000000000000000000000000002A
:1026B000000000000000000000000000000000001A
:1026C000000000000000000000000000000000000A
:1026D00000000000000000000000000000000000FA
:1026E00000000000000000000000000000000000EA
:1026F00000000000000000000000000000000000DA
:1027000000000000000000000000000000000000C9
:1027100000000000000000000000000000000000B9
:1027200000000000000000000000000000000000A9
:102730000000000000000000000000000000000099
:102740000000000000008308B12391038C023424B0
:1027500091034B02A3006100610061006100610010
:10276000610061006100610062006200620062005D
:1027700062006200620082008200820082008200A9
:102780008200820082008200820082088208820821
:1027900082088208A208A208A208A208A208A20829
:1027A000A208A208A208A208A208A208A208A208D9
:1027B000A208A208A208A208A208A208A208C208A9
:1027C000C208C208C208C208C208C208C208C208B9
:1027D000C208C208C208C208C208C208C208C208A9
:1027E000C208C208C308C308C308C308C308C30893
:1027F000C308C308C308C308C308C308C308E30861
:10280000E308E308E308E308E308E308E308E30870
:10281000E308E308E308E308E308E308E308E30860
:10282000E308E308E308E308E308E308E308E30850
:10283000E308E308E308E308E308E308E308E30840
:10284000E308E308E308E308E308E308E308E30830
:10285000E308E308E308E308E308E308E308E30820
:10286000E308E308E308E308E308E308E308E30810
:10287000E308E308E308E308E308E308E308E30800
:10288000E308C208C208C208C208C208C208C208D7
:10289000C208C208C208C208C208C208C208C208E8
:1028A000C208C208C208C208C208C208C208C208D8
:1028B000C208C208C208C208C208C208C208C208C8
:1028C000C208C208C208C208C208C208C208C208B8
:1028D000C208C208C208C208C208C208C208C208A8
:1028E000C208A208A208A208C208C208C208C208F8
:1028F000C208C208C208C208A208A208A208A20808
:10290000A208A208A208A208A208A208A208A20877
:10291000A208A208A208A208A208A208A208A20867
:10292000A208A208A208A208A208A208A208A20857
:10293000A208A208A20882088208820882088208E7
:102940008208820882088208820882088208820837
:102950008208820882088208820882088208820827
:10296000820882088208810881088108810881081C
:1029700081088108610861086108610861086108CF
:102980006108610861086108610861086108410027
:10299000410041004100410041004100410041002F
:1029A000410041004100410041004100410041001F
:1029B000410041004100410041004100410041000F
:1029C00041004100410041004100410041004100FF
:1029D00041004100410041004100410041004100EF
:1029E00041004100410041004100410041004100DF
:1029F00041004100410041004100410041004100CF
:102A0000410041002100210021002100210021007E
:102A100021002100210021002100210021002100AE
:102A2000210021002100210021002100210020009F
:102A30002000200020002000200020002000200096
:102A40002000200020002000000000000000000006
:102A50000000000000000000000000000000000076
:102A60000000000000000000000000000000000066
:102A70000000000000000000000000000000000056
:102A80000000000000000000000000000000000046
:102A90000000000000000000000000000000000036
:102AA0000000000000000000000000000000000026
:102AB0000000000000000000000000000000000016
:102AC0000000000000000000000000000000000006
:102AD00000000000000000000000000000000000F6
:102AE00000000000000000000000000000000000E6
:102AF00000000000000000000000000000000000D6
:102B00000000000000008308B12391038C023424EC
:102B100091034B02A300610061006100610061004C
:102B20006100610061006200620062006200620098
:102B300062008200820082008200820082008200A5
:102B40008200820082008200820882088208820855
:102B50008208A208A208A208A208A208A208A20845
:102B6000A208A208A208A208A208A208A208A20815
:102B7000A208A208A208A208A208A208C208C208C5
:102B8000C208C208C208C208C208C208C208C208F5
:102B9000C208C208C208C208C208C208C308C308E3
:102BA000C308C308C308C308C308C308C308C308CD
:102BB000C308C308C308E308E308E308E308E3081D
:102BC000E308E308E308E308E308E308E308E308AD
:102BD000E308E308E308E308E308E308E308E3089D
:102BE000E308E308E308E308E308E308E308E3088D
:102BF000E308E308E308E308E308E308E308E3087D
:102C0000E308E308E308E308E308E308E308E3086C
:102C1000E308E308E308E308E308E308E308E3085C
:102C2000E308E308E308E308E308E308E308E3084C
:102C3000E308E308E308E308E308E308E308E3083C
:102C4000E308E308E308E308E308E308C208C2086E
:102C5000C208C208C208C208C208C208C208C20824
:102C6000C208C208C208C208C208C208C208C20814
:102C7000C208C208C208C208C208C208C208C20804
:102C8000C208C208C208C208C208C208C208C208F4
:102C9000C208C208C208C208C208C208C208C208E4
:102CA000C208C208C208C208C208C208C208C208D4
:102CB000C208C208C208C208C208C208C208C208C4
:102CC000C208C208A208A208A208A208A208A20874
:102CD000A208A208A208A208A208A208A208A208A4
:102CE000A208A208A208A208A208A208A208A20894
:102CF000A208A208A208A208A208A2088208A208A4
:102D0000A20882088208820882088208A208A20813
:102D10008208820882088208A208A2088208820823
:102D20008208820882088208820882088208820853
:102D30008208820882088108810881086108610888
:102D4000610861086108610861086108610861083B
:102D5000410041004100410041004100410041006B
:102D6000410041004100410041004100410041005B
:102D7000410041004100410041004100410041004B
:102D8000410041004100410041004100410041003B
:102D9000410041004100410041004100410041002B
:102DA000410041004100410041004100410041001B
:102DB000410041004100410041004100410041000B
:102DC000410041004100410041004100410021001B
:102DD00021002100210021002100210021002100EB
:102DE00021002100210021002100210021002100DB
:102DF00021002100210020002000200020002000D0
:102E000020002000200020002000200020002000C2
:102E100000000000000000000000000000000000B2
:102E200000000000000000000000000000000000A2
:102E30000000000000000000000000000000000092
:102E40000000000000000000000000000000000082
:102E50000000000000000000000000000000000072
:102E60000000000000000000000000000000000062
:102E70000000000000000000000000000000000052
:102E80000000000000000000000000000000000042
:102E90000000000000000000000000000000000032
:102EA0000000000000000000000000000000000022
:102EB0000000000000000000000000000000000012
:102EC0000000000000008308B12391038C02342429
:102ED00091034B02A3006100610061006100610089
:102EE00061006100620062006200620062006200D4
:102EF00082008200820082008200820082008200C2
:102F00008200820082088208820882088208A20861
:102F1000A208A208A208A208A208A208A208A20861
:102F2000A208A208A208A208A208A208A208A20851
:102F3000A208A208A208A208C208C208C208C208C1
:102F4000C208C208C208C208C208C208C208C20831
:102F5000C208C208C308C308C308C308C308C3081B
:102F6000C308C308C308C308C308C308C308E308E9
:102F7000E308E308E308E308E308E308E308E308F9
:102F8000E308E308E308E308E308E308E308E308E9
:102F9000E308E308E308E308E308E308E308E308D9
:102FA000E308E308E308E308E308E308E308E308C9
:102FB000E308E308E308E308E308E308E308E308B9
:102FC000E308E308E308E308E308E308E308E308A9
:102FD000E308E308E308E308E308E308E308E30899
:102FE000E308E308E308E308E308E308E308E30889
:102FF000E308E308E308E308E308E308E308E30879
:10300000E308E308E308E308E308E308E308E30868
:10301000C208C208C208C208C208C208C208C20860
:10302000C208C208C208C208C208C208C208C20850
:10303000C208C208C208C208C208C208C208C20840
:10304000C208C208C208C208C208C208C208C20830
:10305000C208C208C208C208C208C208C208C20820
:10306000C208C208C208C208C208C208C208C20810
:10307000C208C208C208C208C208C208C208C20800
:10308000C208C208C208C208C208C208C208C208F0
:10309000C208C208A208A208A208A208A208A208A0
:1030A000A208A208A208A208A208A208A208A208D0
:1030B000A208A208A208A208A208A208A208A208C0
:1030C000A208A208A208A208A208A208A208A208B0
:1030D000A208A208A208A208A208A208A2088208C0
:1030E0008208820882088208820882088208820890
:1030F00082088208820881088108810881086108A5
:103100006108610861086108610861086108610877
:103110006108610841004100410041004100410057
:103120004100410041004100410041004100410097
:103130004100410041004100410041004100410087
:103140004100410041004100410041004100410077
:103150004100410041004100410041004100410067
:103160004100410041004100410041004100410057
:103170004100410041004100410041004100410047
:103180004100410041004100410041004100410037
:1031900041004100410021002100210021002100C7
:1031A0002100210021002100210021002100210017
:1031B0002100210021002100210021002100200008
:1031C00020002000200020002000200020002000FF
:1031D000200020002000200020000000000000004F
:1031E00000000000000000000000000000000000DF
:1031F00000000000000000000000000000000000CF
:1032000000000000000000000000000000000000BE
:1032100000000000000000000000000000000000AE
:10322000000000000000000000000000000000009E
:10323000000000000000000000000000000000008E
:10324000000000000000000000000000000000007E
:10325000000000000000000000000000000000006E
:10326000000000000000000000000000000000005E
:10327000000000000000000000000000000000004E
:103280000000000000008308B12391038C02342465
:1032900091034B02A30061006100610061006100C5
:1032A00061006200620062006200620082008200CF
:1032B00082008200820082008200820082008200FE
:1032C000820082088208820882088208A208A20876
:1032D000A208A208A208A208A208A208A208A2089E
:1032E000A208A208A208A208A208A208A208A2088E
:1032F000A208C208C208C208C208C208C208C2089E
:10330000C208C208C208C208C208C208C308C3086B
:10331000C308C308C308C308C308C308C308C30855
:10332000C308C308C308E308E308E308E308E308A5
:10333000E308E308E308E308E308E308E308E30835
:10334000E308E308E308E308E308E308E308E30825
:10335000E308E308E308E308E308E308E308E30815
:10336000E308E308E308E308E308E308E308E30805
:10337000E308E308E308E308E308E308E308E308F5
:10338000E308E308E308E308E308E308E308E308E5
:10339000E308E308E308E308E308E308E308E308D5
:1033A000E308E308E308E308E308E308E308E308C5
:1033B000E308E308E308E308E308E308E308E308B5
:1033C000E308E308E308E308E308E308E308E308A5
:1033D000E308E308E208E208E208E208E208E2089B
:1033E000E208E208E208E208C208C208C208C2080D
:1033F000C208C208C208C208C208C208C208C2087D
:10340000C208C208C208C208C208C208C208C2086C
:10341000C208C208C208C208C208C208C208C2085C
:10342000C208C208C208C208C208C208C208C2084C
:10343000C208C208C208C208C208C208C208C2083C
:10344000C208C208C208C208C208C208C208C2082C
:10345000C208C208C208C208C208A208A208A2087C
:10346000A208A208A208A208A208A208A208A2080C
:10347000A208A208A208A208A208A208A208A208FC
:10348000A208A208A208A208A208A208A208A208EC
:10349000A208A208A208A208A208A208A2088208FC
:1034A00082088208820882088208820882088208CC
:1034B00082088208820882088108810881088108C0
:1034C0008108610861086108610861086108610894
:1034D000610861086108610061004100410041002C
:1034E0004100610061006100610061004100410034
:1034F00041004100410041004100410041004100C4
:1035000041004100410041004100410041004100B3
:1035100041004100410041004100410041004100A3
:103520004100410041004100410041004100410093
:103530004100410041004100410041004100410083
:103540004100410041004100410041004100410073
:103550004100410041004100410041004100210083
:103560002100210021002100210021002100210053
:103570002100210021002100210021002100210043
:103580002100210021002000200020002000200038
:10359000200020002000200020002000200020002B
:1035A00020000000000000000000000000000000FB
:1035B000000000000000000000000000000000000B
:1035C00000000000000000000000000000000000FB
:1035D00000000000000000000000000000000000EB
:1035E00000000000000000000000000000000000DB
:1035F00000000000000000000000000000000000CB
:1036000000000000000000000000000000000000BA
:1036100000000000000000000000000000000000AA
:10362000000000000000000000000000000000009A
:10363000000000000000000000000000000000008A
:103640000000000000008308B12391038C023424A1
:1036500091034B02A3006100610061006100610001
:1036600061006200620062006200820082008200EB
:103670008200820082008200820082008200820832
:1036800082088208820882088208A208A208A2088A
:10369000A208A208A208A208A208A208A208A208DA
:1036A000A208A208A208A208A208C208C208C2086A
:1036B000C208C208C208C208C208C208C208C208BA
:1036C000C208C208C208C208C308C308C308C308A6
:1036D000C308C308C308C308C308C308E308E30852
:1036E000E308E308E308E308E308E308E308E30882
:1036F000E308E308E308E308E308E308E308E30872
:10370000E308E308E308E308E308E308E308E30861
:10371000E308E308E308E308E308E308E308E30851
:10372000E308E308E308E308E308E308E308E30841
:10373000E308E308E308E308E308E308E308E30831
:10374000E308E308E308E308E308E308E308E30821
:10375000E308E308E308E308E308E308E308E30811
:10376000E308E308E308E308E308E308E308E30801
:10377000E308E308E308E308E308E308E308E308F1
:10378000E308E308E308E308E308E308E308E308E1
:10379000E308E308E308E208E208E208E208E208D6
:1037A000E208E208E208E208E208E208C208C20809
:1037B000C208C208C208C208C208C208C208C208B9
:1037C000C208C208C208C208C208C208C208C208A9
:1037D000C208C208C208C208C208C208C208C20899
:1037E000C208C208C208C208C208C208C208C20889
:1037F000C208C208C208C208C208C208C208C20879
:10380000C208C208C208C208C208C208C208C20868
:10381000C208C208C208C208C208C208C208C20858
:10382000C208A208C208C208C208C208A208A208A8
:10383000A208C208C208C208C208C208A208A20898
:10384000A208A208A208A208A208A208A208A20828
:10385000A208A208A208A208A208A208A208A20818
:103860008208820882088208820882088208820808
:1038700082088208820882088208810881088108FB
:1038800081088108610861086108610861086108B0
:1038900061086108610861086108610061006100F8
:1038A0006100610061006100610061006100410030
:1038B0004100410041004100410041004100410000
:1038C00041004100410041004100410041004100F0
:1038D00041004100410041004100410041004100E0
:1038E00041004100410041004100410041004100D0
:1038F00041004100410041004100410041004100C0
:1039000041004100410041004100410041004100AF
:10391000410041004100410041004100410041009F
:10392000410041004100210021002100210021002F
:10393000210021002100210021002100210021007F
:103940002100210021002100210021002100200070
:103950002000200020002000200020002000200067
:1039600020002000200020002000000000000000B7
:103970000000000000000000000000000000000047
:103980000000000000000000000000000000000037
:103990000000000000000000000000000000000027
:1039A0000000000000000000000000000000000017
:1039B0000000000000000000000000000000000007
:1039C00000000000000000000000000000000000F7
:1039D00000000000000000000000000000000000E7
:1039E00000000000000000000000000000000000D7
:1039F00000000000000000000000000000000000C7
:103A00000000000000008308B12391038C023424DD
:103A100091034B02A300610061006100610061003D
:103A20006200620062006200820082008200820006
:103A30008200820082008200820082008208820866
:103A4000820882088208A208A208A208A208A20886
:103A5000A208A208A208A208A208A208A208A20816
:103A6000A208A208A208C208C208C208C208C20866
:103A7000C208C208C208C208C208C208C208C208F6
:103A8000C208C208C308C308C308C308C308C308E0
:103A9000C308C308E308E308E308E308E308E3080E
:103AA000E308E308E308E308E308E308E308E308BE
:103AB000E308E308E308E308E308E308E308E308AE
:103AC000E308E308E308E308E308E308E308E3089E
:103AD000E308E308E308E308E308E308E308E3088E
:103AE000E308E308E308E308E308E308E308E3087E
:103AF000E308E308E308E308E308E308E308E3086E
:103B0000E308E308E308E308E308E308E308E3085D
:103B1000E308E308E308E308E308E308E308E3084D
:103B2000E308E308E308E308E308E308E308E3083D
:103B3000E308E308E308E308E308E308E308E3082D
:103B4000E308E308E308E308E308E308E308E3081D
:103B5000E308E308E308E308E308E208E208E20810
:103B6000E208E208E208E208E208E208E208C20825
:103B7000C208C208C208C208C208C208C208C208F5
:103B8000C208C208C208C208C208C208C208C208E5
:103B9000C208C208C208C208C208C208C208C208D5
:103BA000C208C208C208C208C208C208C208C208C5
:103BB000C208C208C208C208C208C208C208C208B5
:103BC000C208C208C208C208C208C208C208C208A5
:103BD000C208C208C208C208C208C208C208C20895
:103BE000C208C208C208C208C208C208C208C20885
:103BF000C208C208C208C208C208C208C208C20875
:103C0000C208C208A208A208A208A208A208A20824
:103C1000A208A208A208A208A208A208A208A20854
:103C2000A208A208A208A208A208A208A208A20844
:103C3000A208820882088208820882088108810816
:103C400081088108810881086108610861086108AC
:103C5000610861086108610861086108610061002C
:103C6000610061006100610061006100610061004C
:103C7000610061006100610061006100410041007C
:103C8000410041004100410041004100410041002C
:103C9000410041004100410041004100410041001C
:103CA000410041004100410041004100410041000C
:103CB00041004100410041004100410041004100FC
:103CC00041004100410041004100410041004100EC
:103CD00041004100410041004100410041004100DC
:103CE00041004100410041004100410041002100EC
:103CF00021002100210021002100210021002100BC
:103D000021002100210021002100210021002100AB
:103D1000210021002100210020002000200020009F
:103D20002000200020002000200020002000200093
:103D30002000000000000000000000000000000063
:103D40000000000000000000000000000000000073
:103D50000000000000000000000000000000000063
:103D60000000000000000000000000000000000053
:103D70000000000000000000000000000000000043
:103D80000000000000000000000000000000000033
:103D90000000000000000000000000000000000023
:103DA0000000000000000000000000000000000013
:103DB0000000000000000000000000000000000003
:103DC0000000000000008308B12391038C0234241A
:103DD00091034B02A3006100610061006100620079
:103DE0006200620082008200820082008200820003
:103DF000820082008200820082008208820882089B
:103E000082088208A208A208A208A208A208A208A2
:103E1000A208A208A208A208A208A208A208A20852
:103E2000A208C208C208C208C208C208C208C20862
:103E3000C208C208C208C208C208C208C208C20832
:103E4000C208C308C308C308C308C308E308E308DB
:103E5000E308E308E308E308E308E308E308E3080A
:103E6000E308E308E308E308E308E308E308E308FA
:103E7000E308E308E308E308E308E308E308E308EA
:103E8000E308E308E308E308E308E308E308E308DA
:103E9000E308E308E308E308E30803090309030967
:103EA00003090309030903090309030903090309B2
:103EB00003090309030903090309030903090309A2
:103EC0000309030903090309030903090309030992
:103ED000030903090309E308E308E308E308E30827
:103EE000E308E308E308E308E308E308E308E3087A
:103EF000E308E308E308E308E308E308E308E3086A
:103F0000E308E308E308E308E308E308E308E30859
:103F1000E308E308E308E308E308E308E208E2084B
:103F2000E208E208E208E208E208E208E208E20841
:103F3000E208E208E208E208E208E208E208E20831
:103F4000C208C208C208C208C208C208C208E20801
:103F5000E208E208C208C208C208E208E208E20871
:103F6000E208E208E208E208E208E208E208E20801
:103F7000E208E208E208E208E208E208E208C20811
:103F8000C208C208C208C208C208C208C208C208E1
:103F9000C208C208C208C208C208C208C208C208D1
:103FA000C208C208C208C208C208C208C208C208C1
:103FB000C208C208C208C208C208C208C208C208B1
:103FC000C208C208C208C208C208A208A208A20801
:103FD000A208A208A208A208A208A208A208A20891
:103FE000A208A208A208A208A208A208A208A20881
:103FF000A208A208A2088208820882088208820811
:1040000082088208820882088108610861086108C4
:104010006108610861086108610861086108610060
:104020006100610061006100610061086108610870
:104030006108610861006100610061006100410088
:104040004100410041004100410041004100410068
:104050004100410041004100410041004100410058
:104060004100410041004100410041004100410048
:104070004100410041004100410041004100410038
:104080004100410041004100410041004100410028
:104090004100410041004100410041004100410018
:1040A0004100410041004100410041004100410008
:1040B0004100410041004100210021002100210078
:1040C00021002100210021002100210021002100E8
:1040D00021002100210021002100210021002100D8
:1040E00020002000200020002000200020002000D0
:1040F0002000200020002000200000000000000020
:1041000000000000000000000000000000000000AF
:10411000000000000000000000000000000000009F
:10412000000000000000000000000000000000008F
:10413000000000000000000000000000000000007F
:10414000000000000000000000000000000000006F
:10415000000000000000000000000000000000005F
:10416000000000000000000000000000000000004F
:10417000000000000000000000000000000000003F
:104180000000000000008308B12391038C02342456
:1041900091034B02A30061006100610061006200B5
:1041A000620082008200820082008200820082001F
:1041B00082008200820082088208820882088208C7
:1041C000A208A208A208A208A208A208A208A2089F
:1041D000A208A208A208A208A208A208A208A2088F
:1041E000C208C208C208C208C208C208C208C2087F
:1041F000C208C208C208C208C208C208C208C2086F
:10420000C308C308E308E308E308E308E308E30896
:10421000E308E308E308E308E308E308E308E30846
:10422000E308E308E308E308E308E308E308E30836
:10423000E308E308E308E308E308E308E308E30826
:10424000E308E308E308E308E308E308E308E30816
:1042500003090309030903090309030903090309FE
:1042600003090309030903090309030903090309EE
:1042700003090309030903090309030903090309DE
:1042800003090309030903090309030903090309CE
:104290000309030903090309030903090309E308DF
:1042A000E308E308E308E308E308E308E308E308B6
:1042B000E308E308E308E308E308E308E308E308A6
:1042C000E308E308E308E308E308E308E308E30896
:1042D000E308E308E308E308E308E308E308E30886
:1042E000E208E208E208E208E208E208E208E2087E
:1042F000E208E208E208E208E208E208E208E2086E
:10430000E208E208C208C208C208C208E208E208DD
:10431000E208E208E208E208E208E208E208E2084D
:10432000E208E208E308E208E208E208E208E2083C
:10433000E308E308E208E208E208E208E208E3082A
:10434000E308E208E208E208C208C208C208C2089C
:10435000C208C208C208C208C208E208E208E208AD
:10436000C208C208C208C208C208C208C208C208FD
:10437000C208C208C208C208C208C208C208C208ED
:10438000C208C208C208C208C208C208C208C208DD
:10439000C208C208A208C208C208A208A208A2084D
:1043A000A208A208A208A208A208A208A208A208BD
:1043B000A208A208A208A208A208A208A2088208CD
:1043C000820882088208820882088208820882089D
:1043D0008208820882088208610861086108610811
:1043E0006108610861086108610861086108610885
:1043F000610861086108610061006100610061009D
:1044000041004100410041004100410041004100A4
:104410004100410041004100410041004100410094
:104420004100410041004100410041004100410084
:104430004100410041004100410041004100410074
:104440004100410041004100410041004100410064
:104450004100410041004100410041004100410054
:104460004100410041004100410041004100410044
:104470004100410041004100410041004100410034
:104480002100210021002100210021002100210024
:104490002100210021002100210021002100210014
:1044A0002100210021002100200020002000200008
:1044B000200020002000200020002000000000003C
:1044C00000000000000000000000000000000000EC
:1044D00000000000000000000000000000000000DC
:1044E00000000000000000000000000000000000CC
:1044F00000000000000000000000000000000000BC
:1045000000000000000000000000000000000000AB
:10451000000000000000000000000000000000009B
:10452000000000000000000000000000000000008B
:10453000000000000000000000000000000000007B
:104540000000000000008308B12391038C02342492
:1045500091034B02A30061006100610062008200D0
:10456000820082008200820082008200820082003B
:104570008200820082088208820882088208A208DB
:10458000A208A208A208A208A208A208A208A208DB
:10459000A208A208A208A208A208A208A208C208AB
:1045A000C208C208C208C208C208C208C208C208BB
:1045B000C208C208C208C208C208C208E308E30869
:1045C000E308E308E308E308E308E308E308E30893
:1045D000E308E308E308E308E308E308E308E30883
:1045E000E308E308E308E308E308E308E308E30873
:1045F000E308E308E308E308E308E308E308E30863
:10460000E308E308E308E3080309030903090309CE
:10461000030903090309030903090309030903093A
:10462000030903090309030903090309030903092A
:10463000030903090309030903090309030903091A
:10464000030903090309030903090309030903090A
:1046500003090309030903090309030903090309FA
:104660000309030903090309E308E308E308E3086E
:10467000E308E308030903090309E308E308E3087F
:10468000E308E308E308E308E308E308E308E308D2
:10469000E308E308E308E308E308E308E308E308C2
:1046A000E308E208E208E208E208E208E208E208B9
:1046B000E208E208E208E208E208E208E208E208AA
:1046C000E208E208E208C208C208E208E208E208DA
:1046D000E208E208E208E208E208E208E208E2088A
:1046E000E308E308E308E308E308E308E308E30872
:1046F000E308E308E208E308E308E308E308E30863
:10470000E308E308E308E308E308E308E308E20852
:10471000E208E208E208E208E208E208E208E20849
:10472000E208E208E208E208C208C208C208C208B9
:10473000C208C208C208C208C208C208C208C20829
:10474000C208C208C208C208C208C208C208C20819
:10475000C208C208C208C208C208C208C208C20809
:10476000C208C208C208A208A208A208A208A20899
:10477000A208A208A208A208A208A208A208A208E9
:1047800082088208820882088208820882088208D9
:10479000820882088208820861086108610861084D
:1047A00061086108610862086208620862086108BD
:1047B00061086108610861086108610061006100C9
:1047C0006100610041004100410041006100610061
:1047D00061006100610061006100610061006100D1
:1047E00061004100410041004100410041004100A1
:1047F0004100610061006100610061004100410011
:1048000041004100410041004100410041004100A0
:104810004100410041004100410041004100410090
:104820004100410041004100410041004100410080
:104830004100410041004100410041004100410070
:1048400041004100410041002100210021002100E0
:104850002100210021002100210021002100210050
:104860002100210021002100210021002100210040
:104870002000200020002000200020002000200038
:104880000000000000000000000000000000000028
:104890000000000000000000000000000000000018
:1048A0000000000000000000000000000000000008
:1048B00000000000000000000000000000000000F8
:1048C00000000000000000000000000000000000E8
:1048D00000000000000000000000000000000000D8
:1048E00000000000000000000000000000000000C8
:1048F00000000000000000000000000000000000B8
:104900000000000000008308B12391038C023424CE
:1049100091034B02A30061006100620082008200EB
:104920008200820082008200820082008200820077
:10493000820882088208820882088208A208A208E7
:10494000A208A208A208A208A208A208A208A20817
:10495000A208A208A208A208A208C208C208C208A7
:10496000C208C208C208C208C208C208C208C208F7
:10497000C208C208C208C208C208E308E308E30884
:10498000E308E308E308E308E308E308E308E308CF
:10499000E308E308E308E308E308E308E308E308BF
:1049A000E308E308E308E308E308E308E308E308AF
:1049B000E308E308E308E308E308E308E308E3089F
:1049C0000309030903090309030903090309030987
:1049D0000309030903090309030903090309030977
:1049E0000309030903090309030903090309030967
:1049F0000309030903090309030903090309030957
:104A00000309030903090309030903090309030946
:104A10000309030903090309030903090309030936
:104A20000309030903090309030903090309030926
:104A30000309030903090309030903090309030916
:104A40000309E308E3080309030903090309030948
:104A5000030903090309E308E308E308E308E3089B
:104A6000E308E308E208E208E208E208E208E208F4
:104A7000E208E208E208E208E208E208E208E208E6
:104A8000E208E208E208E208E208E208E208E208D6
:104A9000E208E208E208E308E308E3080309E308A0
:104AA000E308E308E308E308E308E308E308E308AE
:104AB000E308E308E308E308E308E308E308E3089E
:104AC000E308E308E308E308E308E308E308E3088E
:104AD000E208E208E208E308E308E308E308E20882
:104AE000E208E208E308E308E308E208E208E20873
:104AF000E208C208C208C208C208C208C208C20846
:104B0000C208C208C208C208C208C208C208C20855
:104B1000C208C208C208C208C208C208C208C20845
:104B2000C208C208C208C208A208A208A208A208B5
:104B3000A208A208A208A208A208A208A208A20825
:104B4000A208A208A208A208820882088208820895
:104B50008208820882088208820882086208620845
:104B600062086208620862086208620862086208F5
:104B700062086208620861086108610861006100FA
:104B8000610061006100610061006100610061001D
:104B90006100620062006200620062006100610008
:104BA00061006100610061006100610061006100FD
:104BB00061006100610061006100610061006100ED
:104BC000610061006100410041004100410041007D
:104BD00041004100410041004100410041004100CD
:104BE00041004100410041004100410041004100BD
:104BF00041004100410041004100410041004100AD
:104C0000410041004100410041004100410041009C
:104C1000210021002100210021002100210021008C
:104C2000210021002100210021002100210021007C
:104C30002100210021002000200020002000200071
:104C40002000000000000000000000000000000044
:104C50000000000000000000000000000000000054
:104C60000000000000000000000000000000000044
:104C70000000000000000000000000000000000034
:104C80000000000000000000000000000000000024
:104C90000000000000000000000000000000000014
:104CA0000000000000000000000000000000000004
:104CB00000000000000000000000000000000000F4
:104CC0000000000000008308B12391038C0234240B
:104CD00091034B02A3006100620082008200820007
:104CE00082008200820082008200820082008208AC
:104CF0008208820882088208A208A208A208A208E4
:104D0000A208A208A208A208A208A208A208A20853
:104D1000A208A208A208A208C208C208C208C208C3
:104D2000C208C208C208C208C208C208C208C20833
:104D3000C208C208C208E308E308E308E308E3087E
:104D4000E308E308E308E308E308E308E308E3080B
:104D5000E308E308E308E308E308E308E308E308FB
:104D6000E308E308E308E308E308E308E308E308EB
:104D7000E308E308E308E308030903090309030957
:104D800003090309030903090309030903090309C3
:104D900003090309030903090309030903090309B3
:104DA00003090309030903090309030903090309A3
:104DB0000309030903090309030903090309030993
:104DC0000309030903090309030903090309030983
:104DD0000309030903090309030903090309030973
:104DE0000309030903090309030903090309030963
:104DF0000309030903090309030903090309030953
:104E00000309030903090309030903090309030942
:104E10000309030903090309E308E308E308E308B6
:104E2000E308E308E308E308E208E208E208E2082E
:104E3000E208E208E208E208E208E208E208E20822
:104E4000E208E208E208E208E208E308E208E20811
:104E5000E208E208E308E308E30803090309030999
:104E6000E308E308E308030903090309E308E30887
:104E7000E308030903090309E308E308E308E30877
:104E8000030903090309E308E308E308E308E30867
:104E9000E308E308E308E308E308E308E308E308BA
:104EA000E308E308E308E308E308E208E208E208AD
:104EB000E308E308E308E208E208C208E308E308BD
:104EC000E308E308C208C208C208E308E308E308ED
:104ED000C208C208C208C208C308C308C308C2087F
:104EE000C208C208C208C208C208C208C208C20872
:104EF000C208C208A208A208A208A208A208A20822
:104F0000A208A208A208A208A208A2088208820891
:104F10008208820882088208820882088208820841
:104F200062086208820882088208620862086208D1
:104F3000620862086208620862086208620861002A
:104F40006100610061006100620062006200620055
:104F50006200620062006200620062006200620041
:104F60006200620061006100610061006100620036
:104F70006200620062006200620062006200620021
:104F80006100610061006100610061006100410039
:104F90004100410041004100410041004100410009
:104FA00041004100410041004100410041004100F9
:104FB00041004100410041004100410041004100E9
:104FC00041004100410041004100410041004100D9
:104FD0004100410041004100210021002100210049
:104FE00021002100210021002100210021002100B9
:104FF00021002100210021002100200020002000AC
:105000002000200000000000000000000000000060
:105010000000000000000000000000000000000090
:105020000000000000000000000000000000000080
:105030000000000000000000000000000000000070
:105040000000000000000000000000000000000060
:105050000000000000000000000000000000000050
:105060000000000000000000000000000000000040
:105070000000000000000000000000000000000030
:105080000000000000008308B12391038C02342447
:1050900091034B02A3006100820082008200820023
:1050A00082008200820082008200820082088208E0
:1050B000820882088208A208A208A208A208A20800
:1050C000A208A208A208A208A208A208A208A20890
:1050D000A208A208C208C208C208C208C208C208C0
:1050E000C208C208C208C208C208C208C208C20870
:1050F000C208C208E308E308E308E308E308E3089A
:10510000E308E308E308E308E308E308E308E30847
:10511000E308E308E308E308E308E308E308E30837
:10512000E308E308E308E308E308E308E308E30827
:10513000030903090309030903090309030903090F
:1051400003090309030903090309030903090309FF
:1051500003090309030903090309030903090309EF
:1051600003090309030903090309030903090309DF
:1051700003090309030903090309030903090309CF
:1051800003090309030903090309030903090309BF
:1051900003090309030903090309030903090309AF
:1051A000030903090309030903090309030903099F
:1051B000030903090309030903090309030903098F
:1051C000030903090309030903090309030903097F
:1051D000030903090309030903090309E308E308B1
:1051E000E308E308E308E308E308E208E208E2086A
:1051F000E208E208E208E208E208E208E208E2085F
:10520000E208E208E208E308E308E308E308E2084A
:10521000E208E308E3080309030903090309030992
:10522000030903090309030903090309030903091E
:10523000030903090309030903090309030903090E
:105240000309030903090309E308E308E308E30882
:10525000E308E308E308E308E308E308E308E308F6
:10526000E308E308E308E308E308E308E308E308E6
:10527000E308E308E308E308E308E308E308E308D6
:10528000E308E308E308E308E308E308E308E308C6
:10529000C308C308C308C308C308C308C308C308B6
:1052A000C208C208C208C208C208C208C208C208AE
:1052B000C208C208C208A208A208A208A208A2083E
:1052C000A208A208A208A208A208A208A2088208AE
:1052D000820882088208820882088208820882087E
:1052E000820882088208820882088208820882086E
:1052F00082088208820882088208620862086208BE
:10530000620862006200620062006200620062087D
:10531000620862086208620862086208620862083D
:10532000620062006200620062006200620062006D
:10533000620062006200620062006200620062005D
:105340006200620062006200610061006100610051
:1053500061006100610041004100410041004100E5
:105360004100410041004100410041004100410035
:105370004100410041004100410041004100410025
:105380004100410041004100410041004100410015
:105390004100410041004100410041004100410005
:1053A00021002100210021002100210021002100F5
:1053B00021002100210021002100210020002000E7
:1053C000200020002000200000000000000000005D
:1053D00000000000000000000000000000000000CD
:1053E00000000000000000000000000000000000BD
:1053F00000000000000000000000000000000000AD
:10540000000000000000000000000000000000009C
:10541000000000000000000000000000000000008C
:10542000000000000000000000000000000000007C
:10543000000000000000000000000000000000006C
:105440000000000000008308B12391038C02342483
:1054500091034B02A300820082008200820082003E
:10546000820082008200820082088208820882080C
:105470008208A208A208A208A208A208A208A208FC
:10548000A208A208A208A208A208A208A208A208CC
:10549000A208C208C208C208C208C208C208C208DC
:1054A000C208C208C208C208C208C208C208C208AC
:1054B000C208E308E308E308E308E308E308E308B5
:1054C000E308E308E308E308E308E308E308E30884
:1054D000E308E308E308E308E308E308E308E30874
:1054E000E308E308E30803090309030903090309BF
:1054F000030903090309030903090309030903094C
:10550000030903090309030903090309030903093B
:10551000030903090309030903090309030903092B
:10552000030903090309030903090309030903091B
:10553000030903090309030903090309030903090B
:1055400003090309030903090309030903090309FB
:1055500003090309030903090309030903090309EB
:1055600003090309030903090309030903090309DB
:1055700003090309030903090309030903090309CB
:1055800003090309030903090309030903090309BB
:105590000309030903090309030903090309E308CC
:1055A000E308E308E308E308E308E308E308E308A3
:1055B000E308E308E308E308E308E308E308E30893
:1055C000E308E308E308E308E30803090309030920
:1055D000030903090309030903090309030903096B
:1055E000030903090309030903090309030903095B
:1055F000030903090309030903090309030903094B
:105600000309030903090309E3080309030903095B
:1056100003090309E308E308E308E308E308E308F0
:10562000E308E308E308E308E308E308E308E30822
:10563000E308E308E308E308E308E308E308E30812
:10564000E308E308E308E308E308E308E308E30802
:10565000E308C308E308E308E308E308E308E30812
:10566000C208C208C208C208C208C208C208C208EA
:10567000C208C208C208A208A208A208A208A2087A
:10568000A208A208A208A208A208A208A208A208CA
:10569000A208A208A208A208A2088208820882081A
:1056A00082088208820882088208820882088208AA
:1056B000820882088208820882088208820882089A
:1056C0008208620862006208620862086208620872
:1056D000620862086208620862086208620862087A
:1056E0006208620862086208620062086208620872
:1056F000620862086208620862086208620862085A
:105700006208620862006200620062006200620079
:1057100062006100610061006100610061004100A0
:105720004100410041004100410041004100410071
:105730004100410041004100410041004100410061
:105740004100410041004100410041004100410051
:105750004100410041004100410041004100410041
:1057600041004100410041002100210021002100B1
:105770002100210021002100210021002100210021
:105780002000200020002000200000000000000079
:105790000000000000000000000000000000000009
:1057A00000000000000000000000000000000000F9
:1057B00000000000000000000000000000000000E9
:1057C00000000000000000000000000000000000D9
:1057D00000000000000000000000000000000000C9
:1057E00000000000000000000000000000000000B9
:1057F00000000000000000000000000000000000A9
:105800000000000000008308B12391038C023424BF
:1058100091034B02A300820082008200820082007A
:105820008200820082008208820882088208820840
:10583000A208A208A208A208A208A208A208A20818
:10584000A208A208A208A208A208A208A208A20808
:10585000C208C208C208C208C208C208C208C208F8
:10586000C208C208C208C208C208C208C208E308C7
:10587000E308E308E308E308E308E308E308E308D0
:10588000E308E308E308E308E308E308E308E308C0
:10589000E308E308E308E308E308E308E30803098F
:1058A0000309030903090309030903090309030998
:1058B0000309030903090309030903090309030988
:1058C0000309030903090309030903090309030978
:1058D0000309030903090309030903090309030968
:1058E0000309030903090309030903090309030958
:1058F0000309030903090309030903090309030948
:105900000309030903090309030903090309030937
:105910000309030903090309030903090309030927
:105920000309030903090309030903090309030917
:105930000309030903090309030903090309030907
:1059400003090309030903090309030903090309F7
:1059500003090309030903090309030903090309E7
:10596000E308E308E308E308E308E308E308E308DF
:10597000E308E308E308E308E308E308E308E308CF
:10598000E308E308E308030903090309030903091A
:1059900003090309030903090309030903090309A7
:1059A0000309030903090309031103110311031177
:1059B0000309030903090309030903090309030987
:1059C0000309030903090309030903090309030977
:1059D0000309030903090309030903090309030967
:1059E000E308E308E308E308E308E308E308E3085F
:1059F000E308E308E308E308E308E308E308E3084F
:105A0000E308E308E308E308E308E308E308E3083E
:105A1000E308E308E308E308E308E308E308E3082E
:105A2000E308E308E308E308E308C308C208C20880
:105A3000C208C208C208C208C208C208A208A20856
:105A4000A208A208A208A208A208A208A208A20806
:105A5000A208A208A208A208A208A208A208820816
:105A600082088208820882088208820882088208E6
:105A700082088208820882088208820882088208D6
:105A80008208820882086208620882088208820806
:105A90008208620862086208620862086208620896
:105AA00062086208620862086208620862086208A6
:105AB0006208620862086208620862086208620896
:105AC0006208620862086208620862086200620096
:105AD00062006200620062006200610061006100B9
:105AE000610061006100610041004100410041002E
:105AF000410041004100410041004100410041009E
:105B0000410041004100410041004100410041008D
:105B1000410041004100410041004100410041007D
:105B2000410041004100410041004100410041006D
:105B3000410021002100210021002100210021003D
:105B40002100200020002000200020000000000094
:105B50000000000000000000000000000000000045
:105B60000000000000000000000000000000000035
:105B70000000000000000000000000000000000025
:105B80000000000000000000000000000000000015
:105B90000000000000000000000000000000000005
:105BA00000000000000000000000000000000000F5
:105BB00000000000000000000000000000000000E5
:105BC0000000000000008308B12391038C023424FC
:105BD00091034B02A30082008200820082008200B7
:105BE0008200820882088208820882088208A2084D
:105BF000A208A208A208A208A208A208A208A20855
:105C0000A208A208A208A208A208A208C208C20804
:105C1000C208C208C208C208C208C208C208C20834
:105C2000C208C208C208C208C208C208E308E308E2
:105C3000E308E308E308E308E308E308E308E3080C
:105C4000E308E308E308E308E308E308E308E308FC
:105C5000E308E308E3080309030903090309030947
:105C600003090309030903090309030903090309D4
:105C700003090309030903090309030903090309C4
:105C800003090309030903090309030903090309B4
:105C900003090309030903090309030903090309A4
:105CA0000309030903090309030903090309030994
:105CB0000309030903090309030903090309030984
:105CC0000309030903090309030903090309030974
:105CD0000309030903090309030903090309030964
:105CE0000309030903090309030903090309030954
:105CF0000309030903090309030903090309030944
:105D00000309030903090309030903090309030933
:105D10000309030903090309030903090309030923
:105D200003090309E308E308E308E308E308E308D9
:105D3000E308E308E308E308E308E308E308E3080B
:105D4000E308E30803090309030903090309030935
:105D500003090309030903090309030903090309E3
:105D600003090309031103110311031103110311A3
:105D700003110309030903090309030903090309BB
:105D800003090309030903090309030903090309B3
:105D90000309030903090309030903090311031193
:105DA0000311031103110309E308E308E308E308FF
:105DB000E308E308E308E308E308E308E308E3088B
:105DC000E308E308E308E308E308E308E308E3087B
:105DD000E308E308E308E308E308E308E308E3086B
:105DE000E308E308E308E308E308E308C308C2089C
:105DF000C208C208C208C208C208C208C208C20853
:105E0000C208C208C208C208A208A208A208A208C2
:105E1000A208A208A208A208A208A208A208820852
:105E20008208820882088208820882088208820822
:105E30008208820882088208820882088208820812
:105E40008208820882088208820882088208820802
:105E500082088208620862086208620862086208B2
:105E600062086208620862086208620862086208E2
:105E700062086208620862086208620862086208D2
:105E800062086208620862086208620862086208C2
:105E900062086208620062006200620062006200E2
:105EA00062006100610061006100610061006100E9
:105EB00041004100410041004100410041004100DA
:105EC00041004100410041004100410041004100CA
:105ED00041004100410041004100410041004100BA
:105EE00041004100410041004100410041004100AA
:105EF000410041002100210021002100210021005A
:105F0000210021002000200020002000200020008F
:105F10000000000000000000000000000000000081
:105F20000000000000000000000000000000000071
:105F30000000000000000000000000000000000061
:105F40000000000000000000000000000000000051
:105F50000000000000000000000000000000000041
:105F60000000000000000000000000000000000031
:105F70000000000000000000000000000000000021
:105F80000000000000008308B12391038C02342438
:105F900091034B02A30082008200820082008200F3
:105FA000820882088208820882088208A208A20861
:105FB000A208A208A208A208A208A208A208A20891
:105FC000A208A208A208A208A208C208C208C20821
:105FD000C208C208C208C208C208C208C208C20871
:105FE000C208C208C208C208E308E308E308E308DD
:105FF000E308E308E308E308E308E308E308E30849
:10600000E308E308E308E308E308E308E308030917
:106010000309030903090309030903090309030920
:106020000309030903090309030903090309030910
:106030000309030903090309030903090309030900
:1060400003090309030903090309030903090309F0
:106050000309030903090309030923092311231170
:106060002311231123112311231123112311231190
:106070002311231123112311231123112311231180
:1060800023112309230923092309230923092309A8
:106090002309230903090309030903090309030960
:1060A0000309030903090309030903090309030990
:1060B0000309030903090309030903090309030980
:1060C0000309030903090309030903090309030970
:1060D0000309030903090309030903090309030960
:1060E0000309030903090309030903090309030950
:1060F0000309030903090309030903090309030940
:10610000030903090309030903090309030903092F
:1061100003090311031103110309031103110311EF
:1061200003110311031103110311031103110311CF
:1061300003112311031103110311031103110309A7
:1061400003090309030903090309030903090309EF
:1061500003090309031103110311031103110311AF
:1061600003110311031103090309030903090309B7
:106170000309E308E308E308E308E308E308E308A6
:10618000E308E308E308E308E3080309E308E30896
:10619000E308E308E308E308E308E308E308E308A7
:1061A000E308E308E308E308E308E308E308E30897
:1061B000C308C308C308C308C308C208C208C2088A
:1061C000C208C208C208C208C208C208C208A2089F
:1061D000A208A208A208A208A208A208A20882088F
:1061E0008208A2088208820882088208820882083F
:1061F000820882088208820882088208820882084F
:10620000820882088208820882088208820882083E
:1062100082088208820862086208620862086208CE
:10622000620862086208620862086208620862081E
:10623000620862086208620862086208620862080E
:1062400062086208620862086208620862086208FE
:1062500062086208620862086208620862006200FE
:106260006200620062006200620061006100610021
:106270006100610061006100410041004100410096
:106280004100410041004100410041004100410006
:1062900041004100410041004100410041004100F6
:1062A00041004100410041004100410041004100E6
:1062B0004100410041004100210021002100210056
:1062C00021002100210021002000200020002000CA
:1062D000200000000000000000000000000000009E
:1062E00000000000000000000000000000000000AE
:1062F000000000000000000000000000000000009E
:10630000000000000000000000000000000000008D
:10631000000000000000000000000000000000007D
:10632000000000000000000000000000000000006D
:10633000000000000000000000000000000000005D
:106340000000000000008308B12391038C02342474
:1063500091034B02A3008200820082008200820827
:1063600082088208820882088208A208A208A2087D
:10637000A208A208A208A208A208A208A208A208CD
:10638000A208A208A208C208C208C208C208C2081D
:10639000C208C208C208C208C208C208C208C208AD
:1063A000C208C208C208E308E308E308E308E308F8
:1063B000E308E308E308E308E308E308E308E30885
:1063C000E308E308E30803090309030903090309D0
:1063D000030903090309030903090309030903095D
:1063E000030903090309030903090309030903094D
:1063F000030903090309030903090309030903093D
:10640000030903090309030903090309030903092C
:10641000030923092311231123112311231123110C
:1064200023112311231123112311231123112311CC
:1064300023112311231123112311231123112311BC
:1064400023112311231123112311230923092309C4
:1064500023092309230923092309230923090309FC
:1064600003090309030903090309030903090309CC
:1064700003090309030903090309030903090309BC
:1064800003090309030903090309030903090309AC
:10649000030903090309030903090309030903099C
:1064A000030903090309030903090309030903098C
:1064B000030903090309030903090309030903097C
:1064C0000309030903090309030903090309031164
:1064D00003110311031103110311231103110311FC
:1064E000031103112311231123112311231123114C
:1064F000231123110311031103110311031123119C
