:020000040801F1
:10000000583600205D0B02083D0802083F08020830
:1000100041080208430802084508020800000000E1
:100020000000000000000000000000004708020877
:1000300049080208000000004B0802084D080208A9
:10004000E10B0208E10B0208E10B0208E10B0208D8
:10005000E10B0208E10B0208E10B0208E10B0208C8
:10006000E10B0208E10B0208E10B0208E10B0208B8
:10007000E10B0208E10B0208550802085F080208BC
:10008000E10B0208E10B0208E10B0208E10B020898
:10009000E10B0208E10B0208E10B0208E10B020888
:1000A000E10B0208E10B0208E10B0208E10B020878
:1000B000E10B0208E10B0208E10B0208E10B020868
:1000C000E10B0208E10B0208E10B0208E10B020858
:1000D000E10B0208E10B0208E10B0208E10B020848
:1000E000E10B0208E10B0208E10B0208E10B020838
:1000F000E10B0208E10B0208E10B0208E10B020828
:10010000E10B0208E10B0208E10B0208E10B020817
:10011000E10B0208E10B0208E10B0208E10B020807
:10012000E10B0208E10B0208E10B0208E10B0208F7
:10013000E10B0208E10B0208E10B0208E10B0208E7
:10014000E10B0208E10B0208E10B02086908020852
:10015000E10B0208E10B020873080208E10B020838
:10016000E10B0208E10B0208E10B0208E10B0208B7
:10017000E10B0208E10B0208E10B0208000000009D
:10018000E10B0208E10B02084178007850EA0120F7
:1001900080B27047C178827852EA0122417851EAF0
:1001A0000221007850EA012070470170401C89B29A
:1001B000090A0170401C70470170401C090A017057
:1001C000401C090A0170401C090A0170401C70475C
:1001D000002A06D00B780370491C401C521E002ACE
:1001E000F8D170470170401C521E002AFAD17047A6
:1001F00010B4030000201C780878201A491C5B1CEE
:10020000521E002A01D00028F5D010BC704700E033
:10021000401C0278002A02D002788A42F8D1007885
:100220007047C0B2002801D0002000E000207047D5
:10023000C0B2002801D0002000E00020704710B4B8
:1002400001000A681088921CB0F55843B3F5006F9E
:1002500015D21388921CB0F55844B4F5806F06D2BD
:100260001C00A4B2B4F55C44B4F5806F02D35FF017
:10027000FF3005E00400180080B250EA04400A6034
:1002800010BC704710B403001B0C1C00A4B2002C5F
:100290000DD1002A06D0020092B2B2F55842B2F552
:1002A000006F01D2002019E00880012016E0022A28
:1002B0000DD31A0092B2B2F55842B2F5806F06D251
:1002C000020092B2B2F55C42B2F5806F01D3002019
:1002D00004E00B80891C0880881C022010BC704739
:1002E00038B504000025E07800281ED00123626B99
:1002F00014F13801607801F058FF002814D1002073
:10030000E070616BA06A091A206A81420DD2A07860
:1003100002280AD10123626B206A821814F1380185
:10032000607801F042FF00E001252800C0B232BD34
:1003300070B504000D000026606B854214D02000CB
:10034000FFF7CEFF06003000C0B200280CD1012319
:100350002A0014F13801607801F018FF002802D05B
:100360005FF0FF35012665633000C0B270BD38B55F
:1003700004002000FFF7B4FF05002800C0B20028E9
:100380003CD12078032831D1207901282ED14FF497
:100390000062002114F13800FFF724FF4AF65521CE
:1003A00004F23620FFF701FFDFF8041914F13800DA
:1003B000FFF702FFDFF8FC1814F50770FFF7FCFEEB
:1003C000A16914F50870FFF7F7FE616914F509706B
:1003D000FFF7F2FE606A401C60630123626B14F158
:1003E0003801607801F0E1FE002020710022002138
:1003F000607801F0E9FE002800D001252800C0B295
:1004000032BD891EC269921E914201D3002004E0D0
:10041000026B408901FB0021080070472DE9F04183
:100420000C000668022C02D3F069844201D3012536
:1004300076E05FF0FF353078012804D06FD30328D1
:1004400052D038D36BE0270017EB5707B16AB08959
:10045000B7FBF0F041183000FFF76AFF00285FD1CA
:1004600038007F1CB189B0FBF1F201FB120030446F
:1004700090F83880B16AB089B7FBF0F041183000CD
:10048000FFF756FF00284BD1B089B7FBF0F100FB16
:10049000117706EB070090F8380058EA0028E007CB
:1004A00003D55FEA1818454604E05FEA08585FEA9A
:1004B0001858454634E0B16AB089022290FBF2F048
:1004C000B4FBF0F041183000FFF732FF002827D1CD
:1004D0006000B189B0FBF1F201FB1200304438300A
:1004E000FFF752FE05001BE0B16AB089042290FBC1
:1004F000F2F0B4FBF0F041183000FFF719FF0028CC
:100500000ED1A000B189B0FBF1F201FB1200304422
:100510003830FFF73FFE050025F0704500E001256B
:100520002800BDE8F0812DE9F04107000D0016001C
:100530000224022DC0F0A180F869854280F09D80E0
:100540003878012805D0C0F0988003286BD04BD3B1
:1005500093E0A84618EB5808B96AB889B8FBF0F0E0
:1005600041183800FFF7E4FE04002000C0B2002864
:1005700040F08380404618F10108B989B0FBF1F2E0
:1005800001FB120038443830E90705D5017811F035
:100590000F0151EA061100E0310001700120F870EE
:1005A000B96AB889B8FBF0F041183800FFF7C0FE0F
:1005B00004002000C0B200285FD1B889B8FBF0F178
:1005C00000FB118807EB08003830E90701D5360930
:1005D00006E0017811F0F001360A16F00F060E431E
:1005E00006700120F87048E0B96AB889022290FBD1
:1005F000F2F0B5FBF0F041183800FFF799FE040067
:100600002000C0B2002838D16800BA89310089B210
:10061000B0FBF2F302FB130038443830FFF7C5FD9E
:100620000120F87029E0B96AB889042290FBF2F041
:10063000B5FBF0F041183800FFF77AFE0400200007
:10064000C0B2002819D1A800B989B0FBF1F201FBB2
:10065000120038443830FFF79DFD000F60F31F761D
:10066000A800BA893100B0FBF2F302FB1300384452
:100670003830FFF7A1FD0120F8702000C0B2BDE8BE
:10068000F081F8B505000F00110000202E68022F40
:1006900002D3F069874201D3022032E0002928D03A
:1006A0005FF0FF323000FFF73EFF0100C9B20029C2
:1006B0001FD0C0B225E0012C24D014F1010F23D0AB
:1006C000002239003000FFF72EFF0100C9B20029D7
:1006D0001CD1B069F169891E884206D2B069401CFC
:1006E000B061307950F0010030712700F069874225
:1006F00006D239002800FFF791FE0400002CDAD161
:100700000020F2BD0220FCE70120FAE7C0B2F8E7C2
:100710002DE9F04107000C00D7F80080002C09D12A
:10072000D8F81450002D03D0D8F81C00854211D3FE
:1007300001250FE021003800FFF770FE022801D2EA
:1007400001207BE010F1010F78D0D8F81C1088420E
:1007500074D32500D8F81800002801D100206DE0DE
:100760000026A5421BD16E1CD8F81C00864200D37F
:10077000022631003800FFF751FE012802D010F1A7
:10078000010F00D15AE0002809D0D8F8140002283F
:1007900004D3D8F81C10884200D205000026002E91
:1007A00019D12E00761CD8F81C00864202D30226EE
:1007B000B5420ED331003800FFF730FE00280AD0D2
:1007C000012832D010F1010F2FD0AE42EAD1002023
:1007D00034E0002032E05FF0FF3231004046FFF7A6
:1007E000A2FE0100C9B2002906D1002C04D03200BB
:1007F00021004046FFF797FE0100C9B2002915D13C
:10080000C8F81460D8F81C00801ED8F81810884268
:1008100004D3D8F81800401EC8F8180098F804004F
:1008200050F0010088F8040007E007E0C0B201289A
:1008300002D15FF0FF3600E001263000BDE8F08114
:100840002DE9F04104000D002000FFF749FD0028CC
:1008500001D0012024E029002000FFF7D2FD05008F
:1008600065634FF40062002114F13800FFF7BAFC11
:1008700014F138080127002600E0BE19608986427D
:1008800007D23B0072194146607801F08EFC0028C7
:10089000F3D06089864201D1002000E00120C0B27F
:1008A000BDE8F0812DE9F04105000E002F68B6F596
:1008B000001F02D216F01F0F01D0022049E02E6166
:1008C000AC68002C03D13878032800DBFC6A002CCC
:1008D00009D1300040093989884201D3022038E02B
:1008E000F86AA8611FE0B7F80A80B88900FB08F829
:1008F00006E0022C10D3F86984420DD2B6EB08064C
:1009000046450BD321002800FFF788FD040014F1B1
:10091000010FEED101201CE002201AE02100380076
:10092000FFF76FFDA8616C61A869002801D1022062
:100930000FE0A969B889B6FBF0F04118A961B88940
:10094000B6FBF0F100FB116607EB06003830E861FA
:100950000020BDE8F0812DE9F04106000C00D6F83A
:10096000008037692037B7F5001F01D30020B06140
:10097000B069002801D1042064E0B8F80C00B7FB8E
:10098000F0F100FB1170002850D1B069401CB0613B
:100990007069002809D138004009B8F80810884269
:1009A00044D30020B06104204CE0B8F80C00B7FB41
:1009B000F0F0B8F80A10491E084237D171693000CA
:1009C000FFF72CFD0500022D01D202203AE015F1BF
:1009D000010F01D1012035E0D8F81C0085421FD35A
:1009E000002C03D10020B06104202BE0716930009D
:1009F000FFF78EFE0500002D01D1072022E0012D1A
:100A000001D102201EE015F1010F01D1012019E0F2
:100A100029004046FFF714FF002801D0012011E013
:100A2000756129004046FFF7ECFCB0613761B8F80A
:100A30000C00B7FBF0F100FB117708EB0700383032
:100A4000F0610020BDE8F081F8B504000D002668D3
:100A500000212000FFF726FF0100C9B200291ED1A6
:100A60000027A1693000FFF763FC0100C9B200292B
:100A70000BD1E1690978E52903D0E16909780029FA
:100A800004D17F1CAF4202D109E008E00027012118
:100A90002000FFF760FF0100C9B20029E1D001008A
:100AA000C9B2042900D10720C0B2F2BD70B504005C
:100AB0000D0015F11A00FFF767FB060020780328E8
:100AC00005D115F11400FFF75FFB56EA0046300030
:100AD00070BD70B504000D001600310089B215F12B
:100AE0001A00FFF762FB2078032806D1360C31008C
:100AF00089B215F11400FFF758FB70BD2DE9F843DA
:100B000007000D0015F11A00FFF73EFB002801D089
:100B1000002041E02E7816F03F06761E0D20464359
:100B200001245FF0000811E0B6F5807F25D2484629
:100B300080B201F09BFB040037F8160001F096FB31
:100B4000761C844219D14C4618F10108B8F10D0FFA
:100B500015D2DFF8540B10F808002844FFF714FBF7
:100B60008146200080B20028DED11FFA89F94FF6B5
:100B7000FF708145E8D000200EE000200CE02878CE
:100B8000400608D5A4B2002C05D037F8160000287E
:100B900001D0002000E00120BDE8F2832DE9F04102
:100BA00007000D0015F11A00FFF7EEFA002801D03A
:100BB000002039E02E7836F04006761E0D204643A0
:100BC00001245FF0000808E0B6F5807F1BD20C001E
:100BD00027F81640761C18F10108B8F10D0F14D251
:100BE000DFF8C40A10F808002844FFF7CDFA010026
:100BF000200080B20028E7D189B24FF6FF70814211
:100C0000E9D0002010E000200EE0287840060AD548
:100C1000A4B2002C07D0B6F5807F01D3002003E0FA
:100C2000002027F816000120BDE8F0812DE9F047EB
:100C300006000C00150063730F20E0720020207383
:100C4000002114F11A00FFF7B0FA2F00FFB27F1E47
:100C50000D2047435FF0000AD0461FFA88F84FF690
:100C6000FF79504680B2484502D036F817A07F1C65
:100C7000514689B2DFF8300A10F808002044FFF727
:100C800094FA504680B2002800D1CA4618F10108F3
:100C9000B8F10D0FE3D31FFA8AFACA4503D036F82C
:100CA0001700002801D155F040052570BDE8F087F8
:100CB0005252614172724161FEB5050016001C007E
:100CC0000B222800FFF784FA062C18D3308800285E
:100CD00015D03188B61C00201028F7D222000C0055
:100CE000A4B214F0010414EB420489B24908E203EF
:100CF00003D584F4883494F02104401CECE70726E3
:100D000014F00F0030300100C9B23A2900DBC01DD9
:100D10006F46B855761E2409002CF1D17E20B855B7
:100D2000002401E0641C641CB4420AD2285D20281F
:100D300007D0285DFFF775FA0028F4D0701E8442B2
:100D4000F0D12000441C082E02D2B95D761C00E0D0
:100D500020212954082CF4D3F7BD020000200B21D8
:100D60000300DBB25B0813EBC01013781818521C99
:100D7000491E0029F4D1C0B270472DE9F0470400A4
:100D80000D005FF0040A2668FF27B846B946A0693F
:100D9000002858D0A1693000FFF7CAFA82465046B1
:100DA000C0B200281ED1E06900780100C9B2002954
:100DB00019D0E169C97A11F03F01A1710200D2B2E4
:100DC000E52A0DD00200D2B22E2A09D00A00D2B2F2
:100DD00032F02002082A09D10122D2B2AA4207D059
:100DE000B84627E02FE05FF0040A2CE00022F4E789
:100DF000C9B20F2931D1410607D5E16991F80D90AB
:100E000010F0BF0080462169E1624146C0B2C9B21C
:100E100088420ED14846E169497BC0B2884208D178
:100E2000E1693069FFF7BAFE002802D0B8F1010885
:100E300000E0B84600212000FFF78DFD82465046B5
:100E4000C0B20028A3D05046C0B2002801D0002074
:100E5000A0615046C0B2BDE8F0875FFA88F8B8F1EB
:100E6000000F06D1E069FFF778FF5FFA89F9814545
:100E700002D05FF0FF30E062E5E72DE9F0470400C3
:100E8000256800212000FFF70DFD0100C9B20029EF
:100E900001D0C0B27BE0FF263700B8465FF0FF39D3
:100EA000C4F82C90A1692800FFF742FA8246504608
:100EB000C0B2002818D1E06900780100C9B2002949
:100EC00013D0E169C97A11F03F01A1710200D2B2D9
:100ED000E52A05D00A070BD50A00D2B20F2A07D09F
:100EE000B046C4F82C9045E04FE05FF0040A4CE0B7
:100EF000C9B20F2922D194F82B1049063AD44106E1
:100F000006D5E1694F7B10F0BF0080462169E162A0
:100F10004146C0B2C9B288420ED13800E169497B6E
:100F2000C0B2884208D1E1692869FFF7E7FD0028CF
:100F300002D0B8F101081DE0B0461BE05FFA88F866
:100F4000B8F1000F07D1B846E069FFF706FF5FFA76
:100F500088F8804518D094F82B00C00707D40B22DE
:100F600014F12001E069FFF743F900280DD0B046E5
:100F7000C4F82C9000212000FFF7EDFC824650467B
:100F8000C0B200288ED000E0FFE75046C0B2BDE8F6
:100F9000F0872DE9FE4305002E6895F82B0010F030
:100FA000A00F01D00620A5E0002700E07F1C3069DB
:100FB00030F817000028F9D10C2215F120016846FD
:100FC000FFF706F9E84698F80B00C00729D540203E
:100FD00085F82B005FF0010901E019F10109B9F171
:100FE000640F0ED24B463269694615F12000FFF7B7
:100FF00063FE2800FFF741FF04002000C0B2002874
:10100000EBD0B9F1640F01D1072073E02000C0B22A
:10101000042802D02000C0B26CE098F80B0085F8DC
:101020002B0098F80B00800705D50C370D20B7FB77
:10103000F0F4641C00E0012421002800FFF704FD07
:1010400007003800C0B2002832D1641E002C2FD017
:101050002969B1EB44112800FFF724FC0700380090
:10106000C0B2002824D115F12000FFF776FE80469B
:10107000A9693000FFF75CF907003800C0B200280A
:1010800016D14346DBB22200D2B2E9693069FFF7DC
:10109000CDFD0120F07000212800FFF75CFC070067
:1010A0003800C0B2002803D1641E002CE0D1FFE755
:1010B0003800C0B200281BD1A9693000FFF738F909
:1010C00007003800C0B2002812D120220021E869B0
:1010D000FFF788F80B2215F12001E869FFF778F88F
:1010E00095F82B0010F01800E96908730120F070E2
:1010F0003800C0B2BDE8FE832DE9F84305000E00BC
:101100002F680020B084A869002800F0D780E86A22
:1011100010F1010F3AD00024A0461FFA88F8C1460A
:1011200000E00400386930F81900002825D038693B
:1011300030F8190019F10109210089B2002906D1FE
:10114000010089B2B1F55841B1F5006FE9D3D8F18A
:10115000FF0206EB4801243123009BB280B250EA23
:101160000340FFF78FF8010089B2002903D018FA75
:1011700080F80024D6E75FF00008A4B2002C01D06C
:101180005FF00008002006EB480188840024270057
:10119000FFE70B2F45D2E86910F807807F1C404617
:1011A00080B22028F5D0404680B2052801D15FF0FA
:1011B000E508092F06D10C2C04D22E2006EB4401A1
:1011C0004881641C4046C0B2FFF72BF800280ED0BF
:1011D000082F0CD00B2F0AD0E869C05DFFF728F864
:1011E000002804D0E869C05D50EA08287F1C40F25E
:1011F0006231404680B201F01CF8010089B200293A
:101200000ED0D4F10C0206EB44010A3180B2FFF794
:1012100039F8010089B2002912D014FA80F4B8E735
:101220000024002006EB44014881B08C002833D113
:10123000002C07D13F2006EB44018884641C21E088
:101240000024EEE700242200082116E006EB42000D
:10125000408903009BB22E2B00D1102103009BB2CA
:10126000413B1A2B04D2EB691B7B0B4200D0203090
:1012700006EB44039884521C641C06EB4200408930
:101280000028E3D1002006EB44018884E869007B54
:10129000002801D100207081E869C07A3072E869C5
:1012A0001C30FEF777FF3060E8691630FEF76CFF00
:1012B000F080E8691830FEF767FFB080BDE8F18381
:1012C0002DE9FE4F06000D00286801903068006986
:1012D0000090002426E0B7F5803F05D33800000CCD
:1012E000009921F81400641C380080B2202822DB09
:1012F000380080B22F281ED0380080B25C281AD067
:10130000380080B2802807DA390089B2DFF8700728
:10131000FEF77DFF002814D1FF2C14D2009820F88E
:101320001470641C01A8FEF78AFF070017F1010F73
:10133000D1D10620A9E0BFB2202F06DA5FF0040960
:1013400011E00620A1E006209FE05FF0000902E026
:101350000198801C0190019800882F28F8D00198EE
:1013600000885C28F4D00198286000E0641E002CFE
:101370000BD0009800EB440030F8020C010089B259
:101380002029F3D080B22E28F0D00020009921F837
:101390001400002C01D1062077E0002500E06D1C30
:1013A000009830F815002028F9D0002D04D10098BD
:1013B00030F815002E2803D159F0030900E0641E0F
:1013C000002C06D0009800EB440030F8020C2E28C8
:1013D000F5D10B22202116F12000FEF703FF002794
:1013E000BA465FFA8AFA5FF0080801E059F003098B
:1013F000009830F815B06D1C584680B200281DD0FA
:10140000584680B22028F1D0584680B22E2801D10B
:10141000A542EBD1C24501D2A5423CD1B8F10B0F98
:1014200035D0A54201D059F00309AC4232D3250092
:101430005FF0080A5FF00B08BF00D9E796F82000BC
:10144000E52802D1052086F82000B8F1080F00D168
:10145000BF003800C0B210F00C000C2805D03800D6
:10146000C0B210F00300032801D159F002095FEA6D
:10147000897007D4F80701D559F01009780701D50C
:1014800059F0080986F82B900020BDE8FE8F59F02E
:101490000309D3E7D2E7584680B2802814DB59F01D
:1014A000020940F262311FFA8BFB584600F09EFEA3
:1014B00083465FEA0B6007D5DFF8C8051FFA8BFB90
:1014C0001BF07F0B10F80BB0584680B2B0F5807F50
:1014D00011DBB8F10100824503D359F00309C2467C
:1014E00086E7584680B2000A06EB0A0181F8200020
:1014F0001AF1010A20E0584680B2002807D0594668
:1015000089B2DFF88405FEF782FE002804D05FF080
:101510005F0B59F003090FE0584680B241381A2892
:1015200001D257F00207584680B261381A2803D218
:1015300057F00107BBF1200B06EB0A0080F820B042
:101540001AF1010A54E732B50400256802E0009858
:10155000801C0090009800882F28F8D00098008800
:101560005C28F4D00020A06000980088202822D2B7
:10157000802084F82B0000212000FFF793F92DE054
:101580002000FFF77AFC94F82B200100C9B2002953
:101590001AD1510720D4A079C0061ED52069A98987
:1015A000B0FBF1F201FB1200284410F138012800D1
:1015B000FFF77CFAA06069462000FFF781FE01007A
:1015C000C9B20029DCD009E00100C9B2042902D166
:1015D000510700D4052001E000E00520C0B232BD73
:1015E00030B402005FF0FF3011680B0000291CD0FE
:1015F0001C889B1C2500ADB2202D03D32500ADB265
:101600003A2DF5D1A4B23A2C0ED101240D88303DEB
:101610000A2D04D20D1D9D4201D10C88303C012CB5
:1016200001DA2000136000E0002030BC704710B5E4
:1016300004000020E0705FF0FF3060632000FEF7E0
:1016400077FE002801D004202BE004F23620FEF7BC
:101650009BFD4AF65521884201D0032021E094F8F1
:101660003800E92807D094F83800EB2803D094F824
:101670003800E82814D103220CA114F16E00FEF703
:10168000B7FD002801D100200BE00522DFF8FC1394
:1016900014F18A00FEF7ACFD002801D1002000E023
:1016A000022010BD000000001C0B0208464154003F
:1016B0007FB505000C0000212800FFF7B8FF0228C5
:1016C00004D0032801D2002C00D125E0002609E037
:1016D0003001284410F5FF70FEF75CFD694641F8C3
:1016E0002600761C042EF3D3002C01D0661E00E0E9
:1016F0000026694651F82600002805D051F826102A
:101700002800FFF794FF00E00320002C04D10228FA
:1017100002D3761C042EECD304B070BDF8B50F00D4
:10172000140000213960FFF75BFF0600002E01D591
:101730000B2055E1DFF8580350F82650002D01D159
:101740000C204DE13D6014F0FE04287800280DD0F7
:10175000687800F0F3FCC10708D4E4B2002C03D091
:10176000400701D50A203BE1002039E10020287024
:101770006E70687800F0F1FCC10701D503202FE1FD
:10178000E4B2002C03D0400701D50A2028E115F16E
:101790000C020221687800F017FD002801D001201A
:1017A0001EE1A889B0F5007040F20161884204D2C0
:1017B000A889A989491E084201D0012010E1002111
:1017C0002800FFF775FF042801D1012008E1022855
:1017D00001D30D2004E16E6B15F14300FEF7D4FC3C
:1017E000A98980B2884201D00D20F9E015F14E00A0
:1017F000FEF7CAFC0700002F04D115F15C00FEF7CC
:10180000C9FC07002F6295F84800A870A878012845
:1018100004D0A878022801D00D20E1E0A878474341
:1018200095F8450068816889002804D0688969892D
:10183000491E084201D00D20D2E015F14900FEF703
:10184000A3FC28812889A989202291FBF2F190FB31
:10185000F1F201FB1200002801D00D20C0E015F1CB
:101860004B00FEF791FC0400002C04D115F1580048
:10187000FEF790FC040015F14600FEF785FC010020
:10188000080080B2002801D10D20A9E017FA81F2EA
:10189000A889202390FBF3F02B8993FBF0F08218AA
:1018A000944201D20D209BE0A41A6889B4FBF0F0A9
:1018B000002801D10D2093E00024764B984200D2FD
:1018C00003244FF6F673984200D2022440F6F673D2
:1018D000984200D20124002C01D10D2080E0801C10
:1018E000E8616E6216FA81F0A86292192A63032CED
:1018F00014D115F16200FEF747FC002801D00D203D
:101900006EE02889002801D00D2069E015F16400FF
:10191000FEF740FCE862E869800014E028890028AE
:1019200001D10D205CE0A86A3F18EF62022C02D1C1
:10193000E869400007E0E96903204143287F10F08F
:10194000010010EB5100A989491E0818A989B0FBB4
:10195000F1F0296A814201D20D2041E05FF0FF30B1
:10196000A861A869686180202871032C2ED115F127
:101970006800FEF709FC012828D1761C31002800F8
:10198000FEF7D6FC002821D10020287105F2362070
:10199000FEF7FAFB4AF65521884217D115F13800B7
:1019A000FEF7F8FB3C49884210D115F50770FEF7A9
:1019B000F1FB3A49884209D115F50870FEF7EAFBB8
:1019C000A86115F50970FEF7E5FB68612C703448D5
:1019D0000188491C01800088E88032482861002085
:1019E000F2BD70B504000D000926002C12D020684D
:1019F00000280FD02068007800280BD0A08821682C
:101A0000C988884206D12068407800F097FBC0075B
:101A100000D400263000C0B2002801D1206800E0C8
:101A2000002028603000C0B270BD13B582B0140031
:101A3000039800906846FFF7D3FD0100002901D507
:101A40000B201AE0124A52F82100002801D000238E
:101A500003700298002802D00020029B18700298A0
:101A600042F82100E4B2002C01D1002005E0002260
:101A700002A903A8FFF752FEC0B204B010BD0000D7
:101A80006C0B0208BC070208A80B0208B00B020886
:101A900028160020F6FFFF0F525261417272416119
:101AA00040160020B40F00202DE9F2418DB0040053
:101AB0001700002C01D1092000E117F03F073A0080
:101AC000D2B269460DA8FFF729FE06003000C0B269
:101AD000002840F0EB80009801900D9901A8FFF7D5
:101AE00032FD06003000C0B2002804D19DF82F005E
:101AF000000600D5062617F01C0F52D03000C0B2E9
:101B000000280AD03000C0B2042803D101A8FFF792
:101B100040FA060057F0080709E09DF80A0010F0A7
:101B2000110F01D0072602E0780700D50826300003
:101B3000C0B2002846D1380744D508990098FEF76E
:101B4000B5FF050000F002FC010008980E30FEF71A
:101B500033FB20200899C872002208990098FEF7EC
:101B6000B8FF002108981C30FEF726FB01200099E1
:101B7000C870002D26D00098D0F8348000222900AB
:101B800001A8FEF77EFD06003000C0B2002819D182
:101B900041460098FEF7CCFB06006D1E009845619B
:101BA00010E03000C0B200280CD19DF80A00C00639
:101BB00001D5042606E0B80704D59DF80A00C00741
:101BC00000D507263000C0B2002808D1380701D55B
:101BD00057F040070098406B206208986062300020
:101BE000C0B2002862D108990098FEF75FFFA0609C
:101BF00008981C30FEF7CEFAE0600098206000984C
:101C0000C088A0802774002060740020E06100205C
:101C100060614FF40062002114F12800FEF7E2FA3F
:101C2000B80643D5E068002840D0E06860610098BD
:101C30004789009880894743A168E5680BE0200048
:101C4000FEF7ECFB0100022900D2022611F1010F80
:101C500000D10126ED1B3000C0B2002801D1AF42F7
:101C6000EDD3A1613000C0B200281FD10098808957
:101C7000B5FBF0F200FB1250002817D00098FEF7D9
:101C8000C0FB002801D1022610E000998989B5FB2C
:101C9000F1F10818E0610123E26914F128010098CC
:101CA000407800F073FA002800D001263000C0B25E
:101CB000002801D0002020603000C0B20EB0BDE886
:101CC000F0812DE9FC470700140098468946002062
:101CD000C8F8000069463800FFF783FE0100C9B26A
:101CE000002904D1797C0800C9B2002901D0C0B212
:101CF000CBE0387CC00701D40720C6E0F9687869DA
:101D0000081AA0424BD2040049E010F1010F6BD039
:101D1000B861B9690098FEF774FB8246BAF1000F0A
:101D200066D015EB0A0A00988089B4FBF0F6002E05
:101D300066D0009840897119884203D20098408982
:101D40002E00861B3300524649460098407800F02A
:101D50001DFA002850D1387C000613D5F869B0EB85
:101D60000A00B0420ED20098828917F12801F86962
:101D7000B0EB0A0A0098808900FB0AFA09EB0A0016
:101D8000FEF726FA009885897543641BD8F8000091
:101D90002818C8F80000A94478692D187D61002C26
:101DA00072D0786900998989B0FBF1F201FB1200C9
:101DB000002845D1786900998989B0FBF1F5009830
:101DC0004089401E0540002DA3D17869002801D12B
:101DD000B86803E0B9693800FEF720FB022894D206
:101DE00002207874022050E00120787401204CE039
:101DF00002207874022048E001207874012044E039
:101E0000F86950451AD0387C00060DD50123FA69CF
:101E100017F128010098407800F0C7F900282BD16D
:101E2000387C10F07F0038740123524617F12801E6
:101E30000098407800F0AAF9002821D1C7F81CA02A
:101E4000786900998989009A9289121AB0FBF1F594
:101E500001FB0525AC4200D22500786900998989EB
:101E60002A00B0FBF1F301FB1300384410F1280104
:101E70004846FEF7ADF988E701207874012004E0B8
:101E800001207874012000E00020BDE8F6877CB5D1
:101E9000040069462000FFF7A4FD0100C9B2002933
:101EA00043D1217C490640D5207C00060FD5012373
:101EB000E26914F128010098407800F076F90028D2
:101EC00001D0012032E0207C10F07F00207400F06F
:101ED0003DFA0500216A0098FEF72AFA0100C9B20E
:101EE000002922D1666AF07A50F02000F072A268D0
:101EF00031002068FEF7EDFDE16816F11C00FEF7E9
:101F00005BF9290016F11600FEF756F9002116F1CB
:101F10001200FEF74AF901200099C8700098FEF7F8
:101F200026FA217C11F0BF012174C0B276BD1CB528
:101F300004002000FFF7ABFF0100C9B2002909D15E
:101F400069462000FFF74DFD0100C9B2002901D10B
:101F500000212160C0B216BD33B581B00400002C51
:101F600001D109203BE00022694602A8FFF7D6FB19
:101F700005002800C0B2002829D1009820600299ED
:101F80002000FFF7E0FA05002800C0B2002819D1B0
:101F900094F82B00000609D4A079C00605D5E169A4
:101FA0000098FEF783FDA06000E005252800C0B280
:101FB000002807D10098C088A08000212000FEF7EB
:101FC00071FC05002800C0B2042800D105252800B6
:101FD000C0B2002801D0002020602800C0B23EBD61
:101FE00038B505000C0069462800FFF7FAFC01002F
:101FF000C9B2002920D1002C04D100212800FEF70D
:1020000051FC19E000212800FEF7B7FE0100C9B21B
:10201000042900D100200100C9B200290CD12100FF
:102020002800FFF769F800212800FEF794FC010062
:10203000C9B2042900D10020C0B232BD2DE9F1435C
:1020400086B0884614000022694606A8FFF766FBA2
:1020500007003800C0B200286BD1009820600098BB
:10206000C069801E00998969884204D300988069FC
:10207000C8F800005DE0002600980078012818D11B
:10208000022400980190210001A8FEF7C7F910F181
:10209000010F0AD001280AD0002800D1761C641C48
:1020A0000098C0698442EED339E0012737E0022767
:1020B00035E00098C4690098D0F828900025002DDC
:1020C0000AD149460098FEF733F9070019F10109D2
:1020D0003800C0B200280ED10098007802280BD139
:1020E000009828443830FEF74FF8002800D1761CBD
:1020F000AD1C28000AE012E0009828443830FEF7B2
:1021000049F8000100D1761C2D1D2800009989890D
:10211000B0FBF1F501FB1505641E002CCFD1C8F80A
:102120000060009886610098007950F001000099E5
:1021300008713800C0B207B0BDE8F08380B5010077
:10214000294A0800C0B21044007AC9B202EB8101EA
:10215000496849688847C0B202BD80B502000020C6
:10216000214B1100C9B2595C00290DD10120110089
:10217000C9B258541000C0B21844007AD2B203EB6E
:102180008201496809688847C0B202BD38B50400B9
:10219000154D2000C0B22844007AE4B205EB840457
:1021A0006468A468A047C0B232BD38B504000E4DC3
:1021B0002000C0B22844007AE4B205EB84046468CD
:1021C000E468A047C0B232BD10B50300064CC9B2E6
:1021D0001800C0B22044007ADBB204EB83035B68D2
:1021E0001B699847C0B210BD1416002010B402003D
:1021F00000204C4B802A01D2100017E0B2F5803F3E
:1022000014D240F2623489B2A1420FD1002000E022
:10221000401C010089B2802905DA010089B233F837
:1022200011108A42F4D1803000F0FF0080B210BC5F
:10223000704710B4020000203A4B1400A4B2802C66
:1022400001DA10000FE040F2623489B2A1420AD1F3
:10225000110089B2B1F5807F05DA92B203EB42003A
:10226000B0F58070008880B210BC704770B4B0F5D3
:10227000803F54D2010089B2B1F5805F01DA2A496A
:1022800007E02A4905E092B2002A02D1A4B201EB8C
:1022900044010B888A1C190089B2002905D001006D
:1022A0001C0089B2A4B2A14200D237E01488911C6C
:1022B000220092B2120A04F0FF040500ADB226001B
:1022C000B6B216FA83F6B542DDDA92B2002A0CD025
:1022D000022A15D00FD3042A16D013D3062A17D0FA
:1022E00014D3082A18D015D318E080B29BB2C01AB4
:1022F00031F8100012E0C31A13F00103C01A0DE008
:1023000010380BE0203809E0303807E01A3805E0D3
:10231000083003E0503801E0B0F5E35080B270BC03
:10232000704700000006020808FF010800070208C5
:1023300080B50349034800F02DF80349087001BD3A
:1023400020160020080B02084E16002000207047BF
:1023500030B4040001200023114D6B7A002B16D1FC
:1023600000206B7AE854687A05EB80004460687A54
:1023700028440272687A421C6A72C0B23030088007
:102380003A2048802F2088800020C8800020C0B2DA
:1023900030BC704780B50022FFF7DAFF02BD0000B5
:1023A00014160020000000000000000000000000E3
:1023B0000000000000000000000000003033333354
:1023C0003333330030030000E7600CCEC1188C813A
:1023D00031180300000000000000000000000000B1
:1023E000000000000000000000000000000080313C
:1023F0000063006700C6008C01FF1FFE3F300660CF
:102400000CC0188031F0FFE1FF03C6008C01980377
:10241000180330060000000000000000000000006B
:102420000004800010801FFCC789180123E004F815
:1024300000FE003E400C88013123E37FF8031000CA
:102440000240000800000000001E60801F18E01C11
:102450000C300C031886010C6300863100E70C0079
:102460003FC6038FF103C09C0330860118C300866A
:102470006100C330C0E01C60E00718E0010000000C
:1024800000000000000000000000000000F800FC58
:10249000018E030603060306038C01F8187818EE74
:1024A00018C619831B030F030E031C0E3FFE73F89F
:1024B000E0000000000000000000009C3963C6003E
:1024C0000000000000000000000070706060C0C0EC
:1024D00080810303060C183060C08001070C18606F
:1024E000C000030E380738C0000618C000031C6087
:1024F00080010618608001061870C00003061830BD
:10250000E0C001300006C488DBC10F60003FB81D89
:10251000310206C0000000000000000000000000C2
:1025200000000000000000000000000000000000AB
:102530000000C000C000C000C000C000C000FF3FDD
:10254000FF3FC000C000C000C000C000C0000000CD
:10255000000000000000000000000000000000007B
:1025600000000000000000001C86C361300C060063
:102570000000000000000000000000F0C71F000085
:10258000000000000000000000000000000000004B
:1025900000000000000000E71C0000008001060CA5
:1025A00030C08001061830C000030E18608001039F
:1025B0000C30608001060C30000000007C007FC001
:1025C00071603018300C18060C038601C38061C09E
:1025D000306018300C180C068E03FE003E00000020
:1025E0000000000000000000C000063EF0010C608A
:1025F000000318C000063080010C60000318F8C703
:102600003F0000000000000000800FFC87C3103076
:102610000006C00018800330000370000770000738
:10262000700007E0FFFC1F00000000000000000039
:10263000C00FFF7370010660000638F0010F000341
:102640006000066000167087F31FFC0000000000A9
:102650000000000000C00038000F6003CC80317023
:102660000C0C83C13030FC3FFF0FC00030000C0069
:1026700003C0003000000000000000000000C07F28
:10268000F80F0360000C800130007EC03F00068020
:1026900001300006C0001CC3E11FF801000000006B
:1026A0000000000000007CE00F0EE0000C8001182C
:1026B00000FBE07F1C8C01336006CC8031300E8340
:1026C0003FE003000000000000000000E0FFFC1FEE
:1026D000000370000660000CC00018800130000389
:1026E000600006C0000C800118000000000000001F
:1026F000000000001FF80F83336006CC8039189E5D
:10270000011F980783316006CC8039300EC33FE04B
:1027100003000000000000000000007C007FC0708B
:10272000303018300C18060C03068383FF01DF00DD
:10273000600018000C0007C0017E001F00000000B0
:1027400000000000000000000000001C0E07000058
:102750000000000087C3010000000000000000002E
:10276000000E0E0E000000000000001C0C0E0E06F5
:10277000060303000000000000000000000000024B
:102780000007C007E003F00078003800E001000F08
:1027900000F800C007001C0020000000000000003E
:1027A0000000000000000000000000000000000029
:1027B0000000000000000000FF1FFC7F0000000080
:1027C000000000FC7FF0FF0100000000000000009E
:1027D00000000000000000000000000000000000F9
:1027E000000000000008001C007C00F800E001C0B0
:1027F000038003F0001EE0037C000780000000005F
:1028000000000000000000000000E007FF101C8036
:102810000118800118C0000E708003188001180094
:10282000000080011800000000000000000000000F
:10283000F801E07F80070E1CC0C10038063F63FC32
:1028400073C330360663633036066363303606631F
:10285000E33863FC3F86F7C300001C00800702E0FA
:102860003F00F80300000000000000E001E001E08C
:102870000120013003300330031806180618060C37
:102880000CFC0FFC0F06180618061807380330005A
:1028900000000000000000000000E01FFC87C131C4
:1028A0003006C6C0180CFFE03F0C8C01336006CC2C
:1028B00080193883E33FFC030000000000000000A3
:1028C0000000F801FE8383E18030001C0006000355
:1028D0008001C00060003000380018001C101C0C83
:1028E000FC07FC000000000000000000000000FFEA
:1028F00000FF038307030E030C031C0318031803D4
:1029000018031803180318030C030C030E8307FFA6
:1029100003FF000000000000000000000000E07F56
:10292000FC8F01300006C0001800FFE13F0C800161
:10293000300006C000180003E07FFC0F000000001C
:102940000000000000F07FFF37000330000330007C
:10295000FFF77F0330000330000330000330000333
:1029600000000000000000000000C01FE0FFE0C009
:10297000E100C200C001800100030006000CFC1849
:10298000F83100E30086010C07183C30F07F801F0F
:102990000000000000000000000000008001C600F0
:1029A000638031C018600C300618FF8FFFC70063CA
:1029B0008031C018600C300618038C01C60003007B
:1029C0000000000000000000003F3F0C0C0C0C0C4D
:1029D0000C0C0C0C0C0C0C0C0C3F3F00000000000D
:1029E00000C00FFC000CC0000CC0000CC0000CC0EC
:1029F000000CC0000CC0000CE1F0073F000000001C
:102A00000000000000C08033700C0EC3C1383006D7
:102A1000CC001BC007F003CC0163C030301C0C0697
:102A200003C3C031E00000000000000000000030DF
:102A30000003300003300003300003300003300097
:102A400003300003300003F03FFF030000000000EC
:102A5000000000003880C3031E1EF0F0C1870D3651
:102A6000ECB061C60C3366181BC3D81886C3301C83
:102A70008641300C8061000C03601800C300180010
:102A80000000000000000000000000008003C603FA
:102A9000E381F1C1D860EC306618738C31C63863BD
:102AA0009831DC186C0C3E061E038F01C7800300B2
:102AB00000000000000000000000800F80FF000701
:102AC000070E3818C07000C7001803600C80310072
:102AD000C6001803601CC0610083030E1C1CE03F8D
:102AE000003E00000000000000000000000000F0B8
:102AF0000FFF3138033760033660033738FFF107C3
:102B00000330000330000330000300000000000029
:102B100000000000800F80FF0007070E3818C0700B
:102B200000C7001803600C803100C6001803601C49
:102B3000C0610083030E1C1CE03F003E00C000008B
:102B400003001800E007001F00C03FF03F0C0C031B
:102B5000C68031600C1803C3E0F01FFC01C3C070D5
:102B600030180C0C03C68033C001000000000000C8
:102B7000000000801FFE63300332000370001EE07F
:102B80000FF8037800066000166007F31FFC0000D2
:102B90000000000000000000FF3FFF3FC000C00039
:102BA000C000C000C000C000C000C000C000C00025
:102BB000C000C000C000C000C000C0000000000095
:102BC00000000000000000C00033C00C3003CC0047
:102BD00033C00C3003CC0033C00C3003CC0033C006
:102BE0001C380E07FF801F000000000000000000DE
:102BF00000C0007C801B60069801C6C030300C0C01
:102C000086816160183003CC00338007E0017800D2
:102C10000C0000000000000000000000C000033CA9
:102C2000E0011B7860061E98810766308331CC3046
:102C30000C330C430CC310C66086199861062690AD
:102C4000010924C0030FF0C0031CE00006180000B7
:102C500000000000000000000000000000C0006C48
:102C60008031300C0C860133C00CE00130000C8048
:102C7000073003CC806130300C8C0136000300003B
:102C80000000000000000080039C01C681C3C0C09A
:102C900030601C6006F003F000300018000C0006E5
:102CA00000038001C0006000300000000000000050
:102CB00000000000E0FFFC1F00033000036000067E
:102CC00060000CC0001C8001180003300003E0FF0E
:102CD000FC1F00000000000000007EFC183060C0F7
:102CE000800103060C183060C0800103060C183008
:102CF00060C0801F3F030618306080010306183053
:102D000060C00103060C3060C00003060C30600098
:102D10003F7EC0800103060C183060C080010306AE
:102D20000C183060C0800103C68F1F00008001C0F6
:102D300003C0036006300C181818180C3006600029
:102D40000000000000000000000000000000000083
:102D50000000000000000000000000000000000073
:102D60000000000000000000000000000000000063
:102D70000000000000000000000000000000000053
:102D80000000F8FFFC7F00000EC0011800030000E7
:102D90000000000000000000000000000000000033
:102DA0000000000000000000000000000000000023
:102DB000000000000000C00FF8078203C00030E0F0
:102DC0000FFEC3C330300C0CC783FFC033000000BC
:102DD000000000000000033000033000033000F367
:102DE000F01F873130033330033330033318C3F11E
:102DF0000F7B000000000000000000000000000049
:102E00000000E0833F0E39C000063080010CE02056
:102E10008EE10F3E00000000000000000360000C87
:102E20008001300006DEE01F0EC3600C8C81313063
:102E300006C6C0181886C37FF00C00000000000012
:102E40000000000000000000000000003EE01F0E37
:102E5000C3C00C98FFF37F06C00038200E86FFC069
:102E6000070000000000000000F8FC0C0606067FCA
:102E70007F06060606060606060606060000000091
:102E80000000000000000000000000DEE01F0EC394
:102E9000600C8C81313006C6C0181886C37FF00DD7
:102EA00080013004837FF00306C000180003600037
:102EB0000C8039F00F8EC360180C8361300C86C112
:102EC000301806C360180C0000000000000000B0BD
:102ED00001D8B66DDBB601000060C0000000800FB5
:102EE0001F3060C0800103060C183060C0800103F1
:102EF000C7870706C00018000360000C80C1311CA2
:102F0000C6C11C98011BE003CC8031300E86C3E0A3
:102F100018380000000000000000638C31C6186300
:102F20008C31C618630C0000000000000000000097
:102F300000000000000000CCE1E0DF0FC7E3180C48
:102F4000C66030068331188CC1600C06633018836C
:102F5000C1180CC660300000000000000000000036
:102F600000000000000000000000008039F00F8E1B
:102F7000C360180C8361300C86C1301806C360181A
:102F80000C00000000000000000000000000000035
:102F9000000000800FF0078EC3C131600C1803C61B
:102FA0008031601C1C8E037F800F00000000000039
:102FB000000000000000000000000000F3F01F8788
:102FC0003130033330033330033318C3F10F7B3018
:102FD000000330000330000000000000000000008B
:102FE000008037F00F0E83C130300C0C03C3C030AB
:102FF000301C0C8683FFC037000C0003C00030007B
:103000000C000000000000737B0F030303030303A5
:1030100003030303000000000000000000000000A4
:1030200000F0C33F0719C0003CC01FF0012C6087AF
:10303000FB0F3F000000000000000000183060C0DF
:10304000C09F3F060C183060C080010306F8E00105
:10305000000000000000000000000000000C6630CE
:103060008319CC60063398C10C6630C7F10F670036
:10307000000000000000000000000000000000034D
:103080006C600666600CC3301C811998010FF0005B
:103090000F600000000000000000000000000000C1
:1030A000000000000000003030F0C0C18687191E0B
:1030B00066C8983363CCCC3061C3860D1E16387059
:1030C000E0C08103070000000000000000000000D5
:1030D000000000000000000000036C600C831998E1
:1030E000010F60000F9881190C6360030C00000051
:1030F00000000000000000000000000000C00033DD
:103100003006C6C0300C8681193003668007F00097
:103110000E8001300003600006C0000000000000C7
:10312000000000FCE73FC00006186080030C30C0C0
:103130000006F8CF7F00000000000000C0033E70D2
:1031400000033000033000033080031CF0000FC088
:1031500001380003300003300003300007E0033C77
:1031600018181818181818181818181818181818DF
:1031700018181818181818181EC007C001300006B3
:10318000C00018000360001C0007C00378800338EB
:10319000000360000C8001300006E0800FF00000AA
:1031A00000000000000000000000000000000038E7
:1031B000307C30CC308619061F060E00000000005F
:1031C00000000000000000000000000000000000FF
:1031D00000E001E001E0012001300330033003187A
:1031E00006180618060C0CFC0FFC0F06180618062D
:1031F0001807380330000000000000000000000045
:10320000C0FFF17F0C0003C00030000C00FFC1FFC5
:1032100031700C3003CC0033C00C3803C7FFF00F03
:1032200000000000000000000000C03FF01F0C0E76
:1032300003C3C030300C06FFC07F30300C1803C60B
:103240008031600C1C83C37FF00F00000000000081
:1032500000000000FCFFFF00030C30C000030C3036
:10326000C000030C30C000030C3000000000000060
:10327000000000C0FF00FF030C0C3030C0C0000392
:10328000030C0C383060C0800103060C183030C0CD
:10329000C00003030C0630FCFFF1FFC700180360F9
:1032A0000C80310006000000F8DFFF063080010CC2
:1032B0006000FFF9CF00063080010C600003F8DFEA
:1032C000FF000000000000000000C081817B30781A
:1032D0000C0603C330601806186300630CC0CD00F1
:1032E000F00F00FF0360C600C6186018060683C111
:1032F00060300C0CCC80010F30400000000000005A
:10330000000000000000000000FE80FFC1C121C0DD
:1033100000600030000EF801FC01C001C001C000D7
:10332000600030021C0787FF413F000000000000E2
:10333000000000000000030C030E030F030F830FB7
:10334000830DC30CC30C630C630C330C330C1B0CCC
:103350001F0C0F0C070C070C030C000000000000F2
:1033600000000000F8007000030C030F030F830F30
:10337000830DC30CC30C630C630C330C330C1B0C9C
:103380001F0C0F0C070C070C030C000000000000C2
:103390000000000000307083371CC3300C6330061F
:1033A00033F0013F300663300C8331300333600368
:1033B0000C000000000000000000E07FC0FF8081E2
:1033C00001030306060C0C181830306060C0C08082
:1033D000818103030306060C0C180C301E601CC010
:1033E00000000000000000000000000000700087E6
:1033F000073C3CE0E1830F1B6CD861C38C1966CCA1
:10340000303686B1310C8761380C83601800C300F8
:103410001806C030008601300000000000000000E7
:103420000000000000000618061806180618061806
:1034300006180618FE1FFE1F06180618061806189E
:1034400006180618061806180618000000000000E6
:10345000000000000000800F80FF0007070E3818F2
:10346000C07000C7001803600C803100C60018034C
:10347000601CC0610083030E1C1CE03F003E000086
:10348000000000000000000000000000FF0FFF0F20
:10349000030C030C030C030C030C030C030C030CB4
:1034A000030C030C030C030C030C030C030C030CA4
:1034B0000000000000000000000000F00FFF3138A5
:1034C000033760033660033738FFF107033000032A
:1034D0003000033000030000000000000000000086
:1034E0007EE03F0EE6800CC00118000360000C80F7
:1034F0000130000E800170401C0CFFC10F00000065
:10350000000000000000C0FFFFFF0303C000300008
:103510000C0003C00030000C0003C00030000C00A1
:1035200003C00030000C000000000000000000009C
:1035300080019801C600C3C061606030300C38065D
:103540009801CC006C001E000E0003800160003E5C
:10355000000F000000000000000000000000000359
:103560000006807FC0FFC3318E6198C16083C106B1
:10357000830D061B0C7618CE308C671EFE1FF00FD5
:103580000003000600000000000000000000000032
:1035900000033006180C0C0C0C180630033003E046
:1035A00001C000C000E0013003300318060C0C0C11
:1035B0000C061803300000000000000000000000AE
:1035C0008001C600638031C018600C300618038C7F
:1035D00001C600638031C018600C300618038CFFF0
:1035E000CFFF0700038001C0006000000000030C53
:1035F000030C030C030C030C030C030C030C070E4D
:10360000FE0FF80D000C000C000C000C000C000C60
:10361000000C00000000000000000000000080819D
:1036200081C1C0C06060603030301818180C0C0CBC
:103630000606060303838181C1C0C060606030302C
:10364000301818180C0C0C060606030383FFFFC184
:10365000FFFF00000000000000000000000000006C
:103660000000006060600C0C8C81813130300606F7
:10367000C6C0C018181803036360600C0C8C8181ED
:103680003130300606C6C0C01818180303E3FFFF28
:10369000FDFF3F00000600C000001800000300000E
:1036A0000000F803C01F00C00000060030008001C9
:1036B000000C00E03F00FF031838C000030618307C
:1036C000C08001060C3860E000FF03F8070000002E
:1036D00000000000000000000000001800C30018F7
:1036E00006C030008601300C8061000CFF60F81FBE
:1036F000C3C01806CC30608601330C9861E00C839F
:1037000063F80FC33F180000000000000000000035
:1037100000000060000C8001300006C0001800FFAF
:10372000E17F0C9C0136C006D8001B7003E77FFCCC
:1037300003000000000000000000007FC07F6070F8
:103740001070003000300018FC0FFE0700038001ED
:10375000C000700018020E8383FF801F000000006D
:10376000000000000000000060800F0CFC87C1C159
:10377000311C708601CC38801B03607F00EC0F8009
:103780008D01B031003606C0C601DC3080190E381C
:10379000838363E03F0CF0010000000000000000A4
:1037A00000000000000000E01FF01F38180C180C8B
:1037B000180C180C181C183818F01FE01FE01870AF
:1037C00018301818180C180E180718000000000000
:1037D0000000000000000000000000000000003FAA
:1037E000F00F820360000CFCE13F1EC6C01818C732
:1037F000C37FF00C0000000000000000E003FEC0EA
:10380000031800068000300FFC0787C3C031600C2E
:103810001803C6807160180C8E037F800F000000B3
:10382000000000000000000000000000000000C0D8
:103830003FF80F8361300C823FF01F06C7C0181895
:1038400083E33FFC030000000000000000000000D4
:10385000000000FFFF030303030303030303030349
:1038600000000000000000000000000000000080D8
:103870007FE01F180686816160180C0683C16030E6
:103880001806C6FFF3FF0C3003CC00030000000055
:103890000000000000000000F8C03F0E636003F667
:1038A0007FFF37000370400EC67FF001000000006C
:1038B0000000000000000000000000000000000008
:1038C0007030F8C3F01863608C013303DC0EE01F26
:1038D00080FF003303C6180CC3180C3630300000CC
:1038E00000000000000000000000000000000000D8
:1038F0000000003FF00F820360000CFC801F0007F7
:10390000C0001881E33FF803000000000000000041
:103910000000000000000000000030300C0E83C3E7
:10392000F030368C0D33C3C6B0313C0C07C3C13008
:103930003000000000000000000086C130F0033CB1
:10394000000000C0C0181C8363788C8DB131333601
:10395000C6C6781807E3600C0C00000000000000E9
:1039600000000000000000000018CE78C630861964
:10397000CCE0033F98C11886319881010000000017
:10398000000000000000000000000000807FE01F39
:1039900018068681616018180686C16130180CC649
:1039A00083716000000000000000000000000000C3
:1039B0000000000000000038381C1C1E0F8F874DCF
:1039C000C3B661CA306718310C18060C03860103B0
:1039D00000000000000000000000000000000000E7
:1039E000000000606018180686816160F81FFE877D
:1039F0008161601818068681616000000000000087
:103A000000000000000000000000000000800FF037
:103A1000078EC3C131600C1803C68031601C1C8E38
:103A2000037F800F00000000000000000000000085
:103A3000000000000000C0FFF81F0363600C8C81D1
:103A4000313006C6C018180363600C0C000000007B
:103A5000000000000000000000000000008079F07D
:103A60001F0EC3C018180363600C8C81311886C305
:103A70003FD8030360000C8001300000000000000C
:103A80000000800F7F0E1D30C000030C30C0418E3F
:103A9000F1870F000000000000000000000000009F
:103AA00000FCEF7F3080010C60000318C00006307E
:103AB00080010C0000000000000000000000000079
:103AC000000000C000333006C6C0300C86811930BB
:103AD00003668007F0000E8001300003600006C01E
:103AE00000800100030006000C0018003000FE07F3
:103AF000FE3F86610CC30D061B0C36186C30D86077
:103B0000B0C3308671FC7FE07F000C0018003000ED
:103B10006000C0000000000000000000000030C095
:103B200018180C03668019C00360003C80196006F9
:103B30000C838131C0000000000000000000000084
:103B400000000000000000C0C018180363600C8C67
:103B500081313006C6C0181803E3FFFC1F00036064
:103B6000000C000000000000000000000000C0C0C9
:103B700018180363600C8C817130FC07DF0018009B
:103B80000360000C000000000000000000000000C6
:103B9000000000000000000000000C0663301883E5
:103BA000C1180CC66030068331188CC1600C0663E6
:103BB000301883C1F8FFC7FF3F000000000000007D
:103BC00000000000000000000000000000000000F5
:103BD00000003018CC603083C10C063318CC603044
:103BE00083C10C063318CC603083C1FCFFF7FF1F84
:103BF00000600080010006000000000000000000DE
:103C0000000000000000001F001F0018001800182E
:103C100000F807F80F181C18181818181CF80FF8D7
:103C2000070000000000000000000000000000008D
:103C30000000000000000003180318031803180315
:103C400018FF18FF19831B031B031B831BFF19FF9E
:103C5000180000000000000000000000000000004C
:103C60000000000006600006600006E00FFE6138FC
:103C700006633086E31FFE00000000000000000025
:103C800000000000000000003EF007C1001880C1E5
:103C90001FFC011880010CE1F0073E00000000004D
:103CA0000000000000000000000000000000008391
:103CB0000FC31FE338737033603F603F603360337E
:103CC000607370E338C31F830F0000000000000022
:103CD0000000000000000000000000000000E01FE5
:103CE000F80F0E06038381C1C1C07F803FC018302A
:103CF0000C0C0603C38001000000000000000080DF
:103D000000F5E0700268914203D343681A4491427F
:103D100002D380680028F5D17047DFF86C17086877
:103D200090B94FF4805048604FF480324FF0FF302C
:103D3000C86008610420DFF854378A604861C3F81E
:103D4000BC01DFF84C0708600120704701F108034F
:103D500013F0070F0EBF0023C3F1080303F007039E
:103D60001944D21A8161C26042F001034B60091DFF
:103D70004FF0280C41F802C0DFF80C271369C3612B
:103D800070472DE9FC4B074601F1080010F0070FC2
:103D90000FBF8946C0F1080000F0070001EB0009E1
:103DA00002F1080111F0070F06D002F10800C0F17E
:103DB000080000F0070002441546A5EB090009EBD6
:103DC0000306A0EB030B43F00303C9F80430AE4233
:103DD00028BF01F005FA2879C10758BF01F000FAA1
:103DE000BBF1100F38BF01F0FBF9B869854208D16B
:103DF000F9688B44C7F80CB0BE614BF001007060ED
:103E000051E1786985420AD1B9688B44C7F808B096
:103E10007E614BF00100706046F80BB043E16868CA
:103E200000F00301012940F0AC80C008C0000190FF
:103E3000C0081F2839D8AC68D5F80C8000904545DB
:103E400008BF01F0CDF9A54208BF01F0C9F96868C3
:103E50000099C008C000B0EBC10F18BF01F0C0F955
:103E6000009907F1280000EBC100844206D03969AF
:103E70008C42C0F08180E268AA427DD1A04506D183
:103E800000983968012383409943396076E0804582
:103E900006D0396988456FD3D8F80800A8426BD19D
:103EA000C4F80C80C8F8084068E0EC68D5F81880C1
:103EB000AC420CD0A8683969884223D3C268AA42B0
:103EC00004BFA168A9421DD1C460A0601CE005F137
:103ED00014010C6834B905F110010C68A4B101E0BB
:103EE00011460C6804F114021068002802BF04F1A6
:103EF000100210680028F3D13869814202D30022F1
:103F00000A6001E001F06CF9B8F1000F36D0E96900
:103F100007F5987000EB81000268954208D10460B3
:103F2000A4B9E8697968012282409143796025E06B
:103F30003869804508D3D8F81010A94214BFC8F8D2
:103F40001440C8F8104001E001F04AF9B4B13969F1
:103F50008C4211D3C4F81880286928B1884226BF42
:103F60002061846101F03CF9686938B1396988429F
:103F700002D36061846101E001F032F901996D18AA
:103F80008B4469684908490069604BF00100706022
:103F90004FEADB0446F80BB01F2C23D807F12800AA
:103FA00000EBC4084546BBF1100F38BF01F018F90B
:103FB000386820FA04F1CA0705D4012101FA04F493
:103FC00004433C6007E0D8F80800396988422CBFF8
:103FD000054601F005F9C8F80860EE60B560C6F85E
:103FE0000C8060E05FEA1B2008BF002123D0B0F501
:103FF000803F28BF1F211ED2A0F58072120C02F054
:1040000008029040A0F58051090C01F0040188409D
:10401000A0F580431B0CC2F10E0203F00203521AFA
:10402000D21A984002EBD032D01D2BFA00F101F0E9
:10403000010101EB4201F161002307F59872736100
:1040400002EB810033617A6822FA01F3DC0707D4BE
:10405000012303FA01F1114379600660B0611DE0AC
:1040600002681F291DBF4908C1F119010BFA01F1AE
:10407000594600E002465068C008C000584516D0B6
:1040800002F11003C80F03EB8003490018680028F1
:10409000F0D13869834204D31E60B261F660B66025
:1040A00001E001F09DF809F10800BDE8F68B3969DF
:1040B00090688A4228BF8842F3D3C6609660B06099
:1040C000F2600020B061EEE72DE9FE4F04468B461A
:1040D000A5692E46904699463146FFF711FE0268C3
:1040E000416802EB010AAAF1270111F007000EBF97
:1040F0000021C1F1080101F007010AEB0100A0F164
:104100002F0706F110018F4238BF374607F118021A
:10411000002101920091A8F1280259462046FFF79C
:1041200015FE07F1080010F0070F18BF01F058F84E
:104130001B20786007F1080104F5E07090E80C504E
:1041400081E80C50C0F800B0C0F80480C0F80C90B2
:10415000816007220198009900E0001D491C00F1D0
:10416000080353454260F8D30129D8BF01F038F85D
:10417000B74200F09580BF1B301D321DC159490860
:104180004900D15147F0010070604FEAD70BF75159
:10419000BBF11F0F21D804EBCB0000F12805A84686
:1041A000102F38BF01F01CF8206820FA0BF1CA0765
:1041B00005D4012101FA0BF10843206006E0A8684C
:1041C000216988422CBF804601F00AF8AE60C8F829
:1041D0000C60C6F80880F5606FE0380A08BF00215F
:1041E00023D0B0F5803F28BF1F211ED2A0F58072DA
:1041F000120C02F008029040A0F58051090C01F069
:1042000004018840A0F580431B0CC2F10E0203F0AC
:104210000203521AD21A984002EBD032D01D27FA6C
:1042200000F101F0010101EB420104EB81020023E6
:1042300002F59870F16173613361626822FA01F3EB
:10424000DB0707D4012303FA01F111436160066023
:10425000B0611DE002681F291DBF4908C1F11901A5
:1042600007FA01F1394600E002465068C008C00074
:10427000B84216D002F11003C80F03EB80034900C7
:1042800018680028F0D12069834204D31E60B2610F
:10429000F660B56011E003B0BDE8F04F00F0A0BFDC
:1042A0000BE0216990688A4228BF8842F3D3C66038
:1042B0009560B060F2600020B06103B0BDE8F08F9F
:1042C0002DE9F041704F05463868884608B9FFF778
:1042D00024FDB96801EB08002F30491E20EA0101D6
:1042E00088457DD205F5D876B06828B1326889183E
:1042F0008A4275D2884273D300F0B2FF01001CBF1E
:104300000C6811F1010F6BD03068201805F5D872D8
:1043100030605368984238BF18467060A86960BB27
:10432000286908B1814200D229613161746100209D
:10433000F0614FF0FF303A686A62286205F12802A6
:104340000020D260926002F1080757611761801C5B
:1043500010322028F5D34D48854208BFA4F1280229
:1043600028D055F8040CC00805EBC002A2F10800E3
:104370000A19121A283A01461CE005F5E0700246B7
:1043800000E092687AB3136857681F44B942F8D1C5
:10439000137B1F0727D4AB691768BB4223D3D2F81E
:1043A00004C06744BB421ED2A444C2F804C0E868FB
:1043B000A96922182846FFF7C9FC1FE08068C0B130
:1043C00003689342FAD1027B130712D4026801609A
:1043D0004368E418446043462846BDE8F041D0E411
:1043E0000020BDE8F0812A69914238BF29610A198D
:1043F000E5E7002322462846FFF766FEE868804589
:10440000EED2A0EB0800A969E86001EB0802AA61FE
:1044100040F00100506048F00300486001F10800DE
:10442000BDE8F08130B4184B1A6882B94FF480525D
:104430005A604FF480344FF0FF32DA601A61042280
:10444000124D9C605A61C5F8BC21114A1A6011F1E5
:10445000400F17D28269AAB1C368283199420BD2A2
:1044600000F5E0710C68A24203D34D682C44A242CF
:1044700002D389680029F5D1C16999423CBF4FF048
:10448000FF32C26100F0A8BEFC150020B41100206C
:104490006859883C2DE9F84F00258946090AC9F179
:1044A000000B08BF002323D0B1F5803F28BF1F2396
:1044B0001ED2A1F58072120C02F008029140A1F503
:1044C00080531B0C03F004039940A1F58044240C95
:1044D000C2F10E0204F00204D21A121BA14002EB38
:1044E000D132D11D29FA01F303F0010303EB42039A
:1044F000074607F5987858F8230030B31F2B0FBFF5
:104500004C465C08C4F1190409FA04F4AC46594657
:1045100000E064004268D208D200A2EB09028A429D
:1045200003D21100054600F06981426910304FEA5C
:10453000D47B50F82B00002A1CBF824294460028EE
:10454000E7D18B466046B0BBBDBB012202FA03F344
:104550005B005842796803430B4000F04E8158429B
:1045600003405B1E180B00F01000C340590901F016
:104570000801CB409A0802F00402D3405C0804F022
:1045800002040818E3401018C3F340062018304412
:10459000F3401B1858F823000DE008464168C9088D
:1045A000C900A1EB090159453CBF8B46054601698D
:1045B0000029F2D140690028F0D1002D00F01D81C2
:1045C000B868A0EB0900834580F0178139698D42F6
:1045D000C0F011816868C008C00009EB0B01884277
:1045E00018BF00F0FDFD05EB0906B54280F0038120
:1045F000EC68D5F818A0AC420CD0A868396988429C
:1046000023D3C268AA4204BFA168A9421DD1C460D5
:10461000A0601CE005F114010C6834B905F110012B
:104620000C68A4B101E011460C6804F11402106892
:10463000002802BF04F1100210680028F3D1386985
:10464000814202D300220A6001E000F0C9FDBAF104
:10465000000F36D0E86908EB800001688D4209D16F
:104660000460200014D1E8697968012282409143F6
:10467000796026E03869824508D3DAF81010A9423B
:1046800014BFCAF81440CAF8104001E000F0A8FDB9
:10469000BCB13869844212D3C4F818A0286930B17B
:1046A0003969884226BF2061846100F099FD6869FC
:1046B00038B13969884202D36061846101E000F059
:1046C0008FFDBBF1100F0CD2D94449F00300291D16
:1046D0006860281D51F8092042F0010240F80920C5
:1046E00088E049F0030068604BF0010070604FEA19
:1046F000DB0046F80BB01F281DD807EBC00101F105
:104700002804396821FA00F2D307A34605D4012210
:1047100002FA00F00843386006E0A0683969884270
:104720002CBF834600F05CFDA660CBF80C60C6F899
:1047300008B0F4605EE05FEA1B2008BF002123D0D0
:10474000B0F5803F28BF1F211ED2A0F58072120C49
:1047500002F008029040A0F58051090C01F004011C
:104760008840A0F580431B0CC2F10E0203F0020347
:10477000521AD21A984002EBD032D01D2BFA00F117
:1047800001F0010101EB4201F1610022726132612D
:1047900008EB81007A6822FA01F4E30707D40124C8
:1047A00004FA01F1114379600660B0611DE002680E
:1047B0001F291DBF4908C1F119010BFA01F1594622
:1047C00000E002465068C008C000584518D002F109
:1047D0001003C80F03EB8003490018680028F0D1CC
:1047E0003869834204D31E60B261F660B66001E0AE
:1047F00000F0F6FC14E100F0F3FC0EE18B46A2E6BB
:10480000396990688A4228BF8842F1D3C6609660B1
:10481000B060F2600020B061ECE72DE9F84F064689
:104820008846716848420140491E080B00F010009C
:10483000C1404A0902F00802D1408B0803F004038A
:10484000D9404D0805F002051018E9401818C1F3C9
:104850004004281806F5987A2044E14009185AF8CF
:1048600021104868C008C0000D46A0EB080909E007
:1048700001464868C008C000A0EB080048453CBF9E
:1048800081460D4608690028F2D149690029F0D116
:1048900030698542C0F0BF806968C90808EB090B20
:1048A000C900594518BF00F09BFC05EB0800854284
:1048B000009080F0B080EF68AC69AF420CD0A8687F
:1048C0003169884223D3C268AA4204BFB968A942A9
:1048D0001DD1C760B8601CE005F114010F6837B93D
:1048E00005F110010F68A7B101E011460F6807F14B
:1048F00014021068002802BF07F110021068002897
:10490000F3D13069814202D300220A6001E000F055
:1049100067FC002C31D0E8690AEB800001688D4209
:1049200008D107608FB9E86971680122824091431C
:10493000716022E03069844205D32169A94214BF25
:104940006761276101E000F04BFCB7B13069874235
:1049500011D3BC61286930B13169884226BF386102
:10496000876100F03DFC686938B13169884202D343
:104970007861876101E000F033FCB9F1100F0BD2D0
:104980004BF00300291D6860281D51F80B2042F0F0
:10499000010240F80B203DE048F003012A1D696048
:1049A00049F0010042F80800009941F80990D6F852
:1049B00008804FEAD80BBBF1200F28BF00F010FC95
:1049C000B8F1000F22D006EBCB00776900F1280484
:1049D000A246B8F1100F38BF00F002FC306820FA90
:1049E0000BF1CA0705D4012101FA0BF1084330602D
:1049F00006E0A068316988422CBF824600F0F0FBD7
:104A0000A760CAF80C70C7F808A0FC60C6F8089048
:104A10000098706104E000F0E3FB0020BDE8F28F35
:104A200005F10800BDE8F28F2DE9FE4F0546AFF312
:104A30000080F52DDFF89C6780F004810B2D31BFDD
:104A400010250B35ED08ED003068EC08E04010F063
:104A5000030F46D0C04300F00100041906F12800FE
:104A600000EBC408E700D8F808506868C008C00028
:104A7000B84218BF00F0B4FBD5F80890454508BF10
:104A800000F0AEFB4D4508BF00F0AAFB6868C00807
:104A9000C000B84218BF00F0A3FBC84507D130687A
:104AA000012101FA04F420EA040434600DE03069C5
:104AB000814508D3D9F80C10A94204D1C8F8089050
:104AC000C9F80C8001E000F08BFB47F00300291DC2
:104AD0006860281DCA5942F00102C25105F108045C
:104AE000F8E0B168A94280F0BE80002800F0A18003
:104AF0004FF0010808FA04F1490000FA04F44842B2
:104B000001430C4060420440641E200B00F0100082
:104B1000C440610901F00801CC40A20802F004027F
:104B2000D440630803F002030818DC401018C4F3F3
:104B3000400718183818FC40241806F1280000EB2C
:104B4000C40AE700DAF80890D9F80400C008C000E9
:104B5000B84218BF00F044FBD9F808B0D14508BFEF
:104B600000F03EFBD94508BF00F03AFBD9F804003D
:104B7000C008C000B84218BF00F032FBDA4506D1C9
:104B8000306808FA04F420EA040434600DE0316966
:104B90008B4508D3DBF80C00484504D1CAF808B0AF
:104BA000CBF80CA001E000F01BFB7F1B45F00300DD
:104BB00009F10402C9F8040047F00101515109EB61
:104BC00005020192D751B4684FEAD40ABAF1200F16
:104BD00028BF00F005FB34B3CDF800A006F1280093
:104BE000756900EBCA0AD346102C38BF00F0F8FAFA
:104BF0003168009821FA00F2D30704D408FA00F0D3
:104C00000843306007E0DAF80800316988422CBFB9
:104C1000834600F0E5FACAF80850CBF80C50C5F806
:104C200008B0C5F80CA0B76009F1080401987061DC
:104C300050E07068C0B329463046FFF7EEFD04002F
:104C400011D047E015F1400F28BF4FF0FF350AD2D1
:104C50000B35ED087068ED0028B129463046FFF7A6
:104C600019FC040036D1B068A8421DD3411B7269FB
:104C700010290AD350197061B16041F001034360FB
:104C8000415045F0030555600BE00021B1607161B2
:104C9000131D40F003015160111D1C5844F0010424
:104CA0000C5002F1080415E0F06885420DD2401B5B
:104CB000B169F0604A19B26140F00100506045F0FE
:104CC00003054D6001F1080404E029463046FFF772
:104CD000F7FA0446AFF300802046FFF7EEBA00284B
:104CE00000D170472DE9F047A0F10805AFF300802F
:104CF000DFF8E06431698D42C0F05982686800F0E5
:104D00000302012A00F05382C2084FEAC209C20717
:104D100005EB090839D42C6810F0030F00F0498224
:104D2000604205448D42A144C0F0418270698542D1
:104D300000F0C680E408202C5ED2D5F80CA0AF6845
:104D4000554508BF00F04CFABD4208BF00F048FAD4
:104D50006868C008C000B0EBC40F18BF00F040FA8C
:104D600006F1280000EBC400874205D031698F426C
:104D70003FD3FA68AA423CD1BA452CD13068012110
:104D800001FA04F420EA04043460454580F00F82FF
:104D9000D8F80440E00740F10A82A10700F16881D9
:104DA000B069804540F09F80F168B5618944C6F8DC
:104DB0000C9049F00100686071698D4202D10020B9
:104DC0007061B060F069484580F0F38100213046A1
:104DD000FFF728FBEDE1824506D03069824508D314
:104DE000DAF80810A94204D1C7F80CA0CAF8087074
:104DF000CBE700F0F5F9C8E7EC68AF69AC420BD03F
:104E0000A868884222D3C168A94204BFA268AA4206
:104E10001CD1C460A0601BE005F11402146834B911
:104E200005F1100214689CB101E01A46146804F1FF
:104E300014031868002802BF04F110031868002842
:104E4000F3D18A4202D30021116001E000F0C8F9D9
:104E5000002F9AD0E96906F5987000EB810002688E
:104E6000954209D10460200011D1E86971680122DE
:104E700082409143716088E73069874205D3396980
:104E8000A94214BF7C613C6101E000F0A9F9002C4B
:104E90003FF47BAF31698C42ABD3A761286928B15D
:104EA000884226BF2061846100F09AF96869002871
:104EB0003FF46BAF316988429BD36061846164E7E2
:104EC00098F8040000F0030003287FF45EAFC6F8F2
:104ED000089049F00101D8F8040040084000C8F8E3
:104EE000040069600AE0706980450AD1B1687561A3
:104EF0008944C6F8089049F00100686045F80990B7
:104F000057E1E408E400A144E408202C3AD2D8F8A0
:104F10000CA0D8F80870D04508BF00F061F9B8457A
:104F200008BF00F05DF9D8F80400C008C000B0EB7D
:104F3000C40F18BF00F054F906F1280000EBC400BC
:104F4000874207D031698F42C0F08580FA684245B8
:104F500040F08180BA4507D13068012101FA04F49C
:104F600020EA0404346078E0824506D03069824546
:104F700071D3DAF8081041456DD1C7F80CA0CAF812
:104F800008706AE0D8F80C40D8F8187044450DD085
:104F9000D8F808003169884223D3C268424504BF6B
:104FA000A16841451DD1C460A0601CE008F1140156
:104FB0000C6834B908F110010C68A4B101E0114685
:104FC0000C6804F114021068002802BF04F11002FA
:104FD00010680028F3D13069814202D300220A60B0
:104FE00001E000F0FDF8002F37D0D8F81C1006F5CE
:104FF000987000EB8100026890450AD1046020009F
:1050000012D1D8F81C00716801228240914371606E
:1050100023E03069874205D33969414514BF7C617B
:105020003C6101E000F0DCF8BCB131698C4212D384
:10503000A761D8F8100028B1884226BF206184619A
:1050400000F0CEF8D8F8140038B13169884202D3A4
:105050006061846101E000F0C3F849F0010068601C
:1050600045F8099071698D420BD1C6F80890A0E00F
:1050700064086400C8F8044049F00100686045F81D
:1050800009904FEAD907202F22D206F1280000EB21
:10509000C704A046B9F1100F38BF00F0A1F830687E
:1050A00020FA07F1CA0705D4012101FA07F70743DF
:1050B000376006E0A068316988422CBF804600F066
:1050C0008FF8A560C8F80C50C5F80880EC6070E057
:1050D0005FEA192008BF002123D0B0F5803F28BF28
:1050E0001F211ED2A0F58072120C02F0080290401F
:1050F000A0F58051090C01F004018840A0F580431F
:105100001B0CC2F10E0203F00203521AD21A98408D
:1051100002EBD032D01D29FA00F101F0010101EBC0
:10512000420106F59872002302EB8100E9616B6190
:105130002B61726822FA01F3DC0707D4012303FA1A
:1051400001F1114371600560A8611DE002681F292B
:105150001DBF4908C1F1190109FA01F1494600E0F2
:1051600002465068C008C000484526D002F110032E
:10517000C80F03EB8003490018680028F0D130699C
:10518000834204D31D60AA61ED60AD6001E000F0D0
:1051900027F8306A401E30620BD1D6F8C80100E013
:1051A00080680028FCD14FF0FF30306201E000F051
:1051B00017F8AFF30080BDE8F087316990688A4244
:1051C00028BF8842E3D3C5609560A860EA600020EC
:1051D000A861DEE7B411002030BC00207047000059
:1051E000012000F053B8F0B4024610689568131817
:1051F000506803EB5004C0071DD54D441BE013F865
:10520000017B05F8017B491EF9D1A0B1B60813F85E
:10521000011B06F00306032E08BF13F8016B01EB18
:1052200006214942801C294405D011F8016B05F87C
:10523000016B401EF9D1A3420ED013F8016B16F09A
:10524000030104BF13F8011BC91C30090F28DAD170
:1052500013F8010B0F30D6E7F0BC02F10C007047D9
:105260000749086808B1002070470648C008C00018
:1052700008600549C908C900091A0160704700BFE4
:105280003C1600205F3600205846002080B5AFF362
:105290000080024A11001820ABBEFBE72600020086
:1052A000000000000000000000000000E09C73CE41
:1052B00039E71C700E0000007798610633CC0000BF
:1052C00000000000000000000000000000000000DE
:1052D0000030061803C6C0FFE1FFC01860061803BF
:1052E000FF87FF0363C018600C000000000000008F
:1052F000001080003FFC71890B7CC01FFC810F7483
:10530000A2F30F3F4000021000000000000F18E061
:1053100007039C6300E718C039F370CE7E9CDB392D
:105320007E730ECF9C0318E700C639C0E00718F063
:1053300000000000000000000000000000003EE04F
:105340001F3807CE8177C007F839FECEF973783C55
:105350001CFE1F3F0F00000000000000CE9831002F
:105360000000000000000000781EC7E1781C0E87D6
:10537000C3E1F07038383C3C3F3C70C081030F1CE7
:105380003870E0C0818307070E0E1E1E0030201308
:10539000B7C30F78C00FB723133000000000000020
:1053A00000000000000000000000000000033000CA
:1053B0000330F03FFF030330000330000000000023
:1053C0000000000000000000000000000000381C89
:1053D0001C0C0C0E06000000000000003F3F000007
:1053E0000000000000000000000000000000001CA1
:1053F000C701000000C0C080010303060C0C183078
:105400003060C0C080010303000000800FFEE11C7B
:1054100087733887733887733887E31CFE810F00E2
:10542000000000000000C0010E7EF0031CE0000739
:1054300038C0010E70F09FFF00000000000000F077
:10544000C33FC6131CE000071CF0C0030F3CF0BFB5
:10545000FF01000000000000F0C37F86131CE0E0A5
:10546000011FC0014E70C6F30F3F00000000000096
:105470000000073CF0810F76B8C31CE3F8DFFFC0E3
:10548000010E7000000000000000F8E79F030EF816
:10549000E10F78C00117DC78FFF800000000000081
:1054A00000001FFCE10006700FFF713C8773388716
:1054B000E33CFE810F00000000000000FCF71F70BD
:1054C000E08003071C38F0C081030E1C00000000C0
:1054D000000000E0877F0E77B8C7F9833FEE3BDC22
:1054E000E11EE71F7E00000000000000000FF8072B
:1054F000E770380EC7E1781CFE83770007E0E00F05
:105500007C0000000000000000000000C7710000E7
:10551000001CC701000000000000000E0E0E00007D
:1055200000001C0E0E06060703000000000000101D
:105530008007F8800F7C0007C007800F800F80076E
:10554000000100000000000000000000000000005A
:105550000000F07FF83F00000000FF87FF0300001D
:10556000000000000000000000000000000000003B
:1055700008001E001F001F003E000EE0031FF00188
:105580001E8000000000000000000000F0C33FC2C9
:10559000031CE080071E3CE0000700C0010E000075
:1055A000000000000000E003F80F1C1CCE37E637B7
:1055B00073663366336633663366E63FCE3F1C0060
:1055C000F807E0070000000000001EC003FC801F79
:1055D000F003E7E01C9CC3FFF81F87F3F00E1C00EC
:1055E00000000000000000F8C77F8E739CE3FCE31E
:1055F0003FC73BDCE18EF79F7F000000000000000A
:10560000007EF01F0FE3400EC001380007E00038B5
:10561000100FC37FE0070000000000000000C03F43
:10562000F03F1C1E07C78173E01C3807CE817370E2
:105630001C1EFFC33F000000000000000000F8CF68
:105640007F0E708003FCE73F0738C0010EF09FFF1C
:1056500000000000000000FEFF3F70E0C0FFFF07F9
:105660000E1C3870E00000000000000000FCC0FFCD
:1056700078380EC80170001C3FC7CF81E3E078384E
:10568000FC0FFC000000000000000000C0C17170B1
:105690001C1C07C7C1F17FFC1F07C7C171701C1C10
:1056A00007C7C10100000000000000007F7F1C1C34
:1056B0001C1C1C1C1C1C1C7F7F0000000000F0C375
:1056C0000F38E080030E38E080030E3C7FFC0000C2
:1056D0000000000000E0E01D9EE3711EEEC11DF819
:1056E00003FFE03C1C87E371780E1E000000000001
:1056F0000000001C70C001071C70C001071C70C0B6
:1057000001FFFD07000000000000000F1E0F1E1F1C
:105710001F1F1FBF1FBF1FF71DF71DE71CE71C073B
:105720001C071C071C000000000000000000E0E156
:105730007C9C8FF3737ECEDDB93BE7E7FC1C9FC3F7
:1057400073780E0E000000000000000000F800FF5B
:10575000C1E3E1E038E01C700E38079C038E83C380
:10576000E3C17F800F000000000000000000F8CFC0
:10577000FF0E7FF0831FFC70FFFBC7010E708003DC
:105780000000000000000000F800FFC1E3E1E03885
:10579000E01C700E38079C038E83C3E3C17F800F2B
:1057A00000078003801F800F0FF00FFF7138877391
:1057B00038C7F31FFF701EC7713C8777F0000000E9
:1057C00000000000E0877F0E739007FCC13FF803E4
:1057D0005EE086F71F3F00000000000000F07FFF42
:1057E000070770000770000770000770000770005F
:1057F00007000000000000007070077770077770E6
:1058000007777007777007F778FE830F00000000B6
:1058100000000070708FE7388EE338DCC11DDC813A
:105820000FF8800F70000700000000000000003833
:105830003CDCE1E11C8FE3F81CE7E7383F87F91D0A
:10584000DCECE0E7073F3FF0F08087073C3C0000DE
:1058500000000000000000000038B8E3B8C31D7C61
:10586000E0030EF8C00777B8E3B883030000000038
:105870000000E0C13B388EC37B70077C800FE000E6
:105880001C800370000EC00100000000000000003A
:10589000F03FFF0338C0010E70800738C0010E7062
:1058A00000FFF33F0000000000003F3F070707072D
:1058B0000707070707070707073F3F000630C00035
:1058C00003186080010C30C00006186000030C3023
:1058D0008001003F7EE0C08103070E1C3870E0C0ED
:1058E0008103078E1F3F000000000EC003ECC019AB
:1058F00018868139700000000000000000000000E0
:105900000000000000000020000000000000000077
:105910000000000000000000000000000000000087
:10592000FC1FFF070000838303000000000000004D
:105930000000000000000000000000007EE01FC228
:10594000011CFCE11FC7711CFFE11D0000000000ED
:1059500000071C70C00177FC73DC71C71D77DC7910
:10596000FFFC0100000000000000000000F8F9E763
:10597000D001071C708043FEE1070000000000C05A
:10598000010E7080C31FFF3CE738C739CE719EE31C
:105990001FEE0000000000000000000000800FFF6C
:1059A00038EE70FFFBDF011CE43FFC00000000004C
:1059B000007CBFC3F1FB391C0E87C3E170000000FF
:1059C00000000000000000FCE11FCF711CC7711C2B
:1059D000C7F11CFEC11DC0211EFEE00707700007B5
:1059E0007000F7F01FFF711CC7711CC7711CC771D5
:1059F0001C000000000000F8F1FFFFFF0300007032
:105A0000E000E0C3070E1C3870E0C08103070E1CE5
:105A10001F1E000738C0010E70BCF39CE30E3FF858
:105A2000C33DCE719CE3010000000000E79C73CEF3
:105A300039E79C730E000000000000000000000029
:105A400070CFE3FFCFFF9FE338C7718EE31CC739E8
:105A50008E731CE7380E00000000000000000000FC
:105A600000000000708FFFFCE738C739CE718E73DD
:105A70009CE3000000000000000000000000FCE0CB
:105A80001FCF713887733887E33CFEC10F000000D9
:105A9000000000000000000077FC73DC71C71D7778
:105AA000DC79FFFC71C001071C0000000000000051
:105AB000FCE11FCF711CC7711CC7F11CFEC11DC0CA
:105AC000011CC0011C00000070FFFF0F87C3E170C4
:105AD000380000000000000000C0C7DFA1077FFC05
